:020000040000FA
:06000000E6EF03F0120020
:020006000000F8
:0600080004EF04F01200F9
:02000E001200DE
:060018000CEF04F01200E1
:02001E000001DF
:10002000776B1E0E716E0401400E096F200E0A6F71
:10003000040E0B6F880E086F0401200E0E6F040E65
:100040000F6F400E0C6F1200550EA76EAA0EA76E12
:10005000A68212000401226B010E236F120022C43B
:1000600078F023C479F00001756B0401215100017F
:10007000755D2FE20401245109E10001FF0ED880D3
:1000800078555F0E795502E2766915D075C000F09B
:10009000016A026A040122510024F36E23510120F7
:1000A000F46E24510220F86EF4CFF7FFF3CFF6FF81
:1000B0000800F5CF76F000017551EA6A250FE96E68
:1000C000040EEA2276C0EFFF752B782B000E792301
:1000D000CCD7F86A1200F00E04012217840EA66E27
:1000E0000001756B040121510001755D26E2755117
:1000F000EA6A250FE96E040EEA22EFCF03F075C01D
:1001000000F0016A026A040122510024F36E2351B7
:100110000120F46E24510220F86EF4CFF7FFF3CFE4
:10012000F6FF03C0F5FF0C000F0E000175150F0858
:1001300001E18ADF0001752BD5D71200940EA66E5F
:100140000001756B040121510001755D1EE27551BE
:10015000006E016A060ED89000360136E804FBE115
:10016000026A01BE0268040122510024F36E235189
:100170000120F46E24510220F86EF4CFF7FFF3CF84
:10018000F6FF62DF0001752BDDD7F86A1200A66A60
:100190000001756B040121510001755D10E204013D
:1001A000225100017525A96EA6807551EA6A250FB6
:1001B000E96E040EEA22A8CFEFFF752BEBD71200F1
:1001C0000001756B040121510001755D15E2040108
:1001D000225100017525A96E7551EA6A250FE96E55
:1001E000040EEA22EF50A86E040EA66E2DDFA6B212
:1001F000FED70001752BE6D71200C40EA66E0001D3
:10020000756B040121510001755D21E27551EA6AA7
:10021000250FE96E040EEA22EFCF03F075C000F05F
:10022000016A026A040122510024F36E2351012065
:10023000F46E24510220F86EF4CFF7FFF3CFF6FFEF
:1002400003C0F5FF0C0000DF0001752BDAD7F86A58
:10025000120080D8060E00017A5D03E36D50020B98
:1002600001E077D00001770511E104010CBF0DD04A
:100270000401400E096F400E040108170401087DB7
:10028000880E040108130001776B63D0040108BFD6
:1002900060D00001756B04012051320A45E0CD0A9F
:1002A00034E0F80A2DE0020A26E0010A1FE0070AFE
:1002B00018E0010A11E0030A0AE0070A08E0060A4A
:1002C00001E036D0C7DE0001040E756F32D0C7DE04
:1002D000050E000175272DD0FEDE0001010E756FA1
:1002E00028D02CDF0001010E756F23D050DF050EE2
:1002F000000175271ED064DF0001010E756F19D053
:100300007CDF0001010E756F14D06D960001786BD3
:10031000796B00017807000E795B00017851791143
:1003200001E0F7D7FF0005D00001010E756F01D085
:1003300000D00001010E776F000175510AE075C011
:100340000DF4400E04010C1704010C7D880E04010D
:100350000C131200050E00017A5D02E28C96120069
:040360008C86120075
:0C0364006C5002E0000E01D0010E0009F8
:100370000BE0040100513C0BE842E8420D0802E1A9
:10038000CDEF01F0D6EF01F06C5002E0000E01D08D
:10039000010E040901E019D812000001606B616BC5
:1003A000666B676BABEC02F058EF02F0020E0001D7
:1003B000605D09E15CD8040100BD02D0C80E01D027
:1003C000880E006F12009DEF02F0040E00017A5DAE
:1003D00009E112C46EFF6E50000802E2050E01D062
:1003E000030E7A6F0001600509E10AD8040104BD1B
:1003F00002D0C80E01D0880E046F12009DEF02F0EB
:100400000001080E665D000E675903E266C069F0E0
:1004100002D0080E696F69C005F46951006E016A67
:100420000050665F0150675B180E646F040E656FC5
:1004300069511CE000017BA307D062C0F6FF63C0D6
:10044000F7FF0800F55005D062C0E9FF63C0EAFF7E
:10045000EF5064C0E9FF65C0EAFFEF6E0001622B58
:10046000000E6323642B65236907E2D7120001C4E1
:100470006AF000016A516625666F000E6721676F9A
:10048000180E626F040E636F6A5111E062C0E9FFDB
:1004900063C0EAFFEF5064C0E9FF65C0EAFFEF6E9A
:1004A000642B000E6523622B63236A07EDD71200CD
:1004B000000161510BE10401080E016F100E026F83
:1004C000040E036F840E006F040123D0040110AFEB
:1004D00022D0000166510401165D0001675104013C
:1004E000175904E216C466F017C467F089DF0001EB
:1004F000010E606F0401080E016F100E026F040EF2
:10050000036F800E006F0401180E066F040E076F54
:10051000C80E046F10D00001020E606F0401056B5D
:10052000C80E046F0401080E016F180E026F040E4E
:10053000036FC80E006F6D9812000001606B04011C
:10054000080E016F100E026F040E036F880E006F0D
:060550000401046B12001F
:0A05560004011051600BE842E84276
:10056000E842E842E842000901E012001151080A9D
:1005700039E0010A35E00F0A0AE0030A01E012003F
:100580000001010E616F0001040E7A6F120000017C
:10059000010E616F0401130507E100016A0E626F2D
:1005A000070E636F120E13D0020E135D07E10001F8
:1005B0007C0E626F070E636F200E09D0030E135D71
:1005C0000AE100019C0E626F070E636F040E0001CA
:1005D000666F676B02D00001616B00017B831200C4
:1005E00000EF03F00001010E616F00017C0E626FED
:1005F000000E636F00017B930001010E666F120015
:100600000001010E616F12C47CF00401125104E17B
:100610000001050E7A6F12000001060E7A6F0FEFCF
:0206200000F0E8
:0E062200080E6D6E6DBAFED7686A110E696E15
:100630000001020E7A6F12006850040B06E0695048
:10064000040B03E06D92699468946850010B04E018
:100650006950010B01E027D86850100B09E0695080
:10066000100B06E0698468986D82A08A0300A19A45
:100670006850200B09E06950200B06E070A003D001
:100680009DEC02F07090689A030E00017A5D01E221
:1006900009D06850080B06E06950080B03E0B2EC83
:1006A00001F068961200686A7B0E696E6E6A160E1B
:1006B000706E68A602D06896FCD76D989DEC02F02B
:0C06C00000017C6B0001030E7A6F120039
:0406CC00060EF66EB2
:1006D000000EF76E000EF86E00010900F550706F05
:1006E0000900F550716F03E1706701D03DD009003A
:1006F000F5506B6F0900F5506C6F0900F5506D6F88
:1007000009000900F550E96E0900F550EA6E09008C
:1007100009000900F5506E6F0900F5506F6F090070
:100720000900F6CF72F0F7CF73F0F8CF74F06BC01A
:10073000F6FF6CC0F7FF6DC0F8FF00016E5302E1D9
:100740006F5307E00900F550EE6E6E07F8E26F0791
:10075000F9D772C0F6FF73C0F7FF74C0F8FF00014D
:0A0760007007000E715BBFD7120096
:06076A0012010002000074
:100770000008D8048CFF03010000000109022000DA
:10078000010100803209040000020000000007059A
:100790000102400000070581024000000403090433
:1007A0000F0EC112F19E8A8A84A203D0F18E00EF4F
:1007B00004F0F18E8C969596140E6F6E11EC03F08A
:0C07C0001CEC03F029EC01F0FBD7120048
:0407CC0013EE00F038
:1007D00023EE00F0F86A059C66EC03F007EC00F0ED
:0807E000D0EC03F0FBD712007E
:0807E80000EE00F00F0EEE6AB6
:0607F000EA62FDD71200D1
:00000001FF
