:020000040000FA
:0608000045EF28F0120094
:020808001200DC
:0608180099EF22F012002E
:06082A000100F050000087
:08083000B80000000600000002
:0808380004011851600BE842B5
:10084000E842E842E842E842000901E055D0195187
:10085000070A51E00B0A4FE0070A40E0010A2CE0CA
:100860000B0A28E0020A26E0030A22E0080A12E046
:10087000010A0EE00F0A0AE0030A01E03CD0000181
:10088000010EB16F0001040EBE6F36D036D834D0E1
:1008900090D832D00001010EB16F0001C00EB26FCE
:1008A000000EB36F0001BF930001010EB66F24D09C
:1008B000A8D822D0F4D820D00001010EB16F0401D5
:1008C0001C510001B26FB36BC10EB227000EB323EF
:1008D0000001BF930001010EB66F0ED00001010EA2
:1008E000B16F04011C51EA6AC10FE96E000EEA22E1
:1008F0001AC4EFFF01D000D01200800E0401185D71
:1009000057E11B51030A34E0010A10E0030A01E039
:100910004DD00001010EB16F0001C00EB26F4E0E3E
:10092000B36F120E0001B66FB76B40D00001010E1D
:10093000B16F04011A51F66EF76AD890F636F736A1
:10094000840EF6264F0EF7220900F5CFB2F00A000A
:10095000F5CFB3F0020E0001F76AB225F66EB3517F
:10096000F7220900F5CFB6F00A00F5CFB7F01ED098
:100970000001010EB16F04011A51F66EF76AD890AA
:10098000F636F736880EF6264F0EF7220900F5CF19
:10099000B2F00A00F5CFB3F0B2C0F6FFB3C0F7FF74
:1009A0000800F5500001B66FB76B00D00001BF839F
:1009B00012000001010EB16F0F0EE66E710EE66EB1
:1009C0000F0EE66E9EEC07F0E552E552E552010E81
:1009D000E66EC10EE66E000EE66E9EEC07F0E55286
:1009E000E552E5521AC4C0F004011A5104E10001B5
:1009F000050EBE6F05D00001060EBE6FC6EC25F0D9
:100A000012000401206B216B040118511F0B020A14
:100A100014E0030A0EE0010A01E033D00001010EE8
:100A2000B16F040120810001BFA102D00401208325
:100A300028D00001010EB16F24D00001010EB16F6A
:100A400004011C510F0B080DF350016A000F006EDA
:100A5000040E01221C51800B01E0010E040DF35025
:100A600000010024B46F000E0120B56FB4C0E9FF8F
:100A7000B5C0EAFFEF50040B03E00401010E206F44
:100A800000D00001B1050AE10001200EB26F040E92
:100A9000B36F0001BF930001020EB66F1200040194
:100AA0001A0510E118511F0B00090CE10001010E9D
:100AB000B16F030E0401195D03E10001BF8102D093
:100AC0000001BF9104011A513AE118511F0B0208AD
:100AD00036E11C510F0B000932E00001010EB16F2D
:100AE00004011C510F0B080DF350016A000F006E3A
:100AF000040E01221C51800B01E0010E040DF35085
:100B000000010024B46F000E0120B56F030E040134
:100B1000195D07E1840EB4C0E9FFB5C0EAFFEF6ECE
:100B20000ED01CAF06D0B4C0E9FFB5C0EAFFEF6A33
:100B300006D0880EB4C0E9FFB5C0EAFFEF6E120020
:100B40006C5002E0000E01D0010E00090BE0040120
:100B500000513C0BE842E8420D0802E10CD801D0FC
:100B60001CD808D06C5002E0000E01D0010E040920
:100B700001E023D81200D9CFE6FFE1CFD9FFE6523A
:100B80000001B06BB16BB66BB76B1CEC04F0DDD839
:100B9000E552E552E7CFD9FF1200020E0001B05D29
:100BA0000AE196D8040100BD03D0C80E006F02D040
:100BB000880E006F01D00FD91200040E0001BE5D37
:100BC0000AE11AC46EFF6E50000803E2050EBE6F04
:100BD00002D0030EBE6F0001B0050AE10BD804017C
:100BE00004BD03D0C80E046F02D0880E046F01D07C
:100BF000F2D81200D9CFE6FFE1CFD9FF020EE126ED
:100C00000001080EB65D000EB75905E2B6C0DEFF62
:100C1000B7C0DDFF03D0080EDE6EDD6A0401049369
:100C20000491010EDB500413DFCF05F4000EDB50FE
:100C30000001B65F010EDB50B75B200EB46F040EEF
:100C4000B56F0001BFA31ED0D9CFE9FFDACFEAFF0D
:100C5000EE50ED1016E0B2C0F6FFB3C0F7FF08008B
:100C6000F550B4C0E9FFB5C0EAFFEF6E0001B42B48
:100C7000000EB523B22BB323DF06010E01E2DB0623
:100C8000E3D71CD0D9CFE9FFDACFEAFFEE50ED1061
:100C900015E0B2C0E9FFB3C0EAFFEF50B4C0E9FF0E
:100CA000B5C0EAFFEF6E0001B42B000EB523B22BE6
:100CB000B323DF06010E01E2DB06E4D7020EE15C9E
:100CC00002E2E16AE552E16EE552E7CFD9FF120098
:100CD000D9CFE6FFE1CFD9FF020EE126030E0401D2
:100CE0000015E76E010EE7CFDBFF01C4DFFFDE502A
:100CF0000001B627DD50B723200EB26F040EB36F8C
:100D0000D9CFE9FFDACFEAFFEE50ED1014E0B2C020
:100D1000E9FFB3C0EAFFEF50B4C0E9FFB5C0EAFF96
:100D2000EF6EB42B000EB523B22BB323DF06010EFA
:100D300001E2DB06E5D7020EE15C02E2E16AE55280
:100D4000E16EE552E7CFD9FF12000001B1510CE18D
:100D50000401080E016F180E026F040E036F840E5B
:100D6000006F0401046F35D0040118AF22D00001D8
:100D7000B65104011E5D0001B75104011F5904E280
:100D80001EC4B6F01FC4B7F035DF0001010EB06F0E
:100D90000401080E016F180E026F040E036F800E1F
:100DA000006F0401200E066F040E076FC80E046F5B
:100DB00010D00001020EB06F0401056BC80E046F65
:100DC0000401080E016F200E026F040E036FC80E9F
:100DD000006F6D9812000001B06B0401080E016FE6
:100DE000180E026F040E036F880E006F0401046B6F
:020DF0001200EF
:0E0DF2006DA60FD802D06DB613D80001BE0555
:100E000008E16DBA06D0686A696A69806988020E6D
:100E1000BE6F12006D6A696A6D860001010EBE6FB9
:100E200012006D6A696A0001BE6B120011EF07F0D3
:100E30000001BE5101E13AD06850040B04E0695052
:100E4000040B01E038D86DB231D06850010B04E0DA
:100E50006950010B01E050D86850100B04E0695054
:100E6000100B01E024D86850400B04E06950400B9F
:100E700001E037D86850200B04E06950200B01E0F6
:100E800032D86850020B04E06950020B01E032D8FE
:100E9000030E0001BE5D01E209D06850080B06E0B8
:100EA0006950080B03E0A0EC05F068961200698415
:100EB00068986D8212006D92699468941200000126
:100EC000BFA10ED0F8DF6D840001080EC46F070EBD
:100ED000C56FC407000EC55BC451C511FAE16D941E
:100EE0001200689C120070A003D0EBEC06F070902A
:100EF000689A1200689212006A6A686A9F0E6B6EA6
:100F00007B0E696E6E6A0F0EE66E710EE66E0F0E48
:100F1000E66E14D8E552E552E552160E706E68A6DC
:100F200002D06896FCD76D98EBEC06F00001BF91FB
:100F30000001C06B0001030EBE6F1200D9CFE6FFA7
:100F4000E1CFD9FFFD0EDBCFE9FFFE0EDBCFEAFFDD
:100F5000FC0EDB5004E0EE6AFC0EDB06F9D7E5522E
:060F6000E7CFD9FF1200EB
:0A0F66001B6A1A6A196A186A200E45
:100F7000E76ED8901C361D361E361F3618361936C9
:100F80001A361B362150185C2250195823501A5813
:100F900024501B5809E32150185E2250195A23503F
:0E0FA0001A5A24501B5A1C2AE72EE4D71200BE
:020FAE00FB0E38
:100FB000E3CFF6FFFC0EE3CFF7FFFD0EE3CFF8FF24
:100FC000FE0EE3CFE9FFFF0EE3CFEAFFE9CFF3FF29
:100FD000EACFF4FF0900F5CFEFFFEE66FBD7120072
:100FE000FF0EE350346E480E01D04C0EE76EE72E34
:100FF000FED7E76AE72EFED7342EF7D7000012009F
:10100000008040C020A060E0109050D030B070F060
:10101000088848C828A868E8189858D838B878F8D0
:10102000048444C424A464E4149454D434B474F400
:101030000C8C4CCC2CAC6CEC1C9C5CDC3CBC7CFC70
:10104000028242C222A262E2129252D232B272F200
:101050000A8A4ACA2AAA6AEA1A9A5ADA3ABA7AFA70
:10106000068646C626A666E6169656D636B676F6A0
:101070000E8E4ECE2EAE6EEE1E9E5EDE3EBE7EFE10
:10108000018141C121A161E1119151D131B171F1D0
:10109000098949C929A969E9199959D939B979F940
:1010A000058545C525A565E5159555D535B575F570
:1010B0000D8D4DCD2DAD6DED1D9D5DDD3DBD7DFDE0
:1010C000038343C323A363E3139353D333B373F370
:1010D0000B8B4BCB2BAB6BEB1B9B5BDB3BBB7BFBE0
:1010E000078747C727A767E7179757D737B777F710
:1010F0000F8F4FCF2FAF6FEF1F9F5FDF3FBF7FFF80
:101100008C9695960001626B7F0ECA6ECB68D08E6E
:101110009E6A9D829F92F28CF28E949E93929598F5
:10112000959A959C959E93989290828E96908480A5
:1011300093988198A46B9290808093929598949EB6
:101140009380929A9394939692869D96C69AC79E00
:10115000C78CC698C690C692C694C696A591A5930C
:101160001200060E0001BE5D03E36D50020B01E0AC
:1011700001D001D81200D9CFE6FFE1CFD9FF210E6F
:10118000E1260001BA5125E1BC0EE66E000EE66EC6
:10119000BB0EE66E000EE66EFDEC22F0E552E55267
:1011A000E552E5520001BA6F0001BB51E8B0808AF8
:1011B000E8A0809A0001BC5102E0FF0E01D0000EB1
:1011C000336E0001BB5102E0000E01D0010E0001A0
:1011D000BD6FDF6A400EE66E640EE66E000EE66ED0
:1011E00068EC26F0E552E552E552000902E1FCEF19
:1011F00015F018EC07F000010A0E626F000164514F
:10120000FF0A02E1E8EF15F0B60A02E1DEEF15F0A1
:10121000010A02E15DEF15F00F0A02E105EF15F09A
:10122000080A02E143EF0EF0090A01E1B9D0020A0F
:1012300001E1B6D0010A01E1B3D0060A01E194D080
:10124000010A01E17CD00E0A69E0070A61E0010AA7
:1012500051E00B0A26E0010A0BE0710A02E0EAEF16
:1012600015F00001320E626F010EDF6EECEF15F02B
:10127000B8C000F0B9C001F0026A00C0E6FF01C0CA
:10128000E6FF02C0E6FF650EE66E000EE66ED7ECE6
:1012900007F0036E050EE15E0350400EDF6EECEFCB
:1012A00015F0BC0EE66E000EE66EBB0EE66E000E8E
:1012B000E66EFDEC22F0E552E552E552E552000102
:1012C000BA6F0001BB51E8B0808AE8A0809A0001A3
:1012D000BC5102E0FF0E01D0000E336E0001BB5185
:1012E00002E0000E01D0010E0001BD6F010EDF6EA5
:1012F000ECEF15F065C0E6FF66C0E6FFC6EC22F035
:10130000E552E5520001666B030EDF6EECEF15F05F
:10131000A4C066F0030EDF6EECEF15F067C0E6FFC9
:1013200065C0E6FF66C0E6FF4FEC24F0E552E552EB
:10133000E5520001686F050EDF6EECEF15F000015D
:1013400000016551010B02E0838801D08398000100
:1013500000016551020B02E0828E01D0829E8182E3
:101360008192DF6AECEF15F0000165958150010B69
:1013700001E06585000100016551010B02E08388F1
:1013800001D08398000100016551020B02E0828EBA
:1013900001D0829E81828192020EDF6EECEF15F009
:1013A00000016269100E65C0DBFF110E66C0DBFF35
:1013B000120E67C0DBFF130E68C0DBFF100EDBCF21
:1013C00000F0110EDBCF01F0120EDBCF02F0130E96
:1013D000DBCF03F0005001100210031002E1ECEF2C
:1013E00015F0100EDBCF1CF0110EDBCF1DF0120E2E
:1013F000DBCF1EF0130EDBCF1FF0070E1C26000EF6
:101400001D22000E1E22000E1F22080E216E226ACF
:10141000236A246A0EEC27F0150E1CC0DBFF160EA3
:101420001DC0DBFF170E1EC0DBFF180E1FC0DBFF49
:10143000819283980001BD511DE0100EDBCF1DF09D
:10144000110EDBCF1EF0120EDBCF1FF0130EDBCF21
:1014500020F02034000E201809E6D880080E1D5414
:10146000000E1E54000E1F54000E205403E29382FF
:10147000C68A9392090EDB6AD950010FE96EDACF62
:10148000EAFF280EEE6E040EED6ED950030FE96EE2
:10149000DACFEAFF680EEE6E040EED6ED950050F3E
:1014A000E96EDACFEAFFA80EEE6E040EED6ED950AB
:1014B000070FE96EDACFEAFFE80EEE6E040EED6E6E
:1014C000150EDBCF1DF0160EDBCF1EF0170EDBCF97
:1014D0001FF0180EDBCF20F02034000E201809E694
:1014E000D880400E1D54000E1E54000E1F54000ED6
:1014F000205401E3FAD10001625102E10001626966
:10150000440E0001645D04E0460E0001645D4DE19F
:10151000040108BFFDD7D950010F006EDACF01F0EA
:10152000090EDB50020D0050F324E96E0150F42047
:10153000EA6E0A0EEECFDBFF0B0EEDCFDBFF090EDE
:10154000DB70D950050F006EDACF01F0090EDB50C9
:10155000020D0050F324E96E0150F420EA6E0C0EE7
:10156000EECFDBFF0D0EEDCFDBFFD950010F006E8C
:10157000DACF01F0090EDB50020D0050F324E96EC2
:101580000150F420EA6EEECF0AF4EDCF0BF4040123
:10159000400E096F18EC07F0400E04010817040113
:1015A000087D880E0401081316D0090EDB70D9508F
:1015B000050F006EDACF01F0090EDB50020D00506E
:1015C000F324E96E0150F420EA6E0C0EEECFDBFF3F
:1015D0000D0EEDCFDBFF400E2E6EE9CF2FF0EACFE0
:1015E00030F0E1CF31F0E2CF32F0460E0001645D21
:1015F0005BE1000EF66E100EF76EF86A0A0EDBCF96
:10160000E9FF0B0EDBCFEAFF0001BD5117E0EECF83
:10161000F6FF0800F5CFC9FF000000002E4E08D0ED
:10162000EECFF6FF0800C9CFF6FFF5CFC9FFF6D71A
:10163000000000000000C9CFF6FF35D0EECFF6FF66
:101640000800F536828ED8A0829E81828192F5367E
:10165000828ED8A0829E81828192F536828ED8A019
:10166000829E81828192F536828ED8A0829E81826E
:101670008192F536828ED8A0829E81828192F53643
:10168000828ED8A0829E81828192F536828ED8A0E9
:10169000829E81828192F536828ED8A0829E81823E
:1016A00081922E2ECBD7E1D0440E0001645D01E083
:1016B0007ED0000EF66E100EF76EF86A0A0EDBCFC3
:1016C000E9FF0B0EDBCFEAFF0C0EDBCFE1FF0D0EC7
:1016D000DBCFE2FF0001BD5117E0EECFF6FF0800BF
:1016E000F5CFC9FF0000000000000000000000006E
:1016F0000000000000000000C9CFF6FF0800F5CF91
:10170000E6FF2E2EEAD752D0EECFF6FF0800D89093
:1017100081B0D880F536828ED8A0829E8182819257
:10172000D89081B0D880F536828ED8A0829E8182F2
:101730008192D89081B0D880F536828ED8A0829ED2
:1017400081828192D89081B0D880F536828ED8A0DF
:10175000829E81828192D89081B0D880F536828E27
:10176000D8A0829E81828192D89081B0D880F536AF
:10177000828ED8A0829E81828192D89081B0D880BA
:10178000F536828ED8A0829E81828192D89081B0D7
:10179000D880F536828ED8A0829E81828192F5CF44
:1017A000F6FF0800F5CFE6FF2E2EAED75ED0000E76
:1017B000F66E100EF76EF86A0C0EDBCFE9FF0D0E19
:1017C000DBCFEAFF0001BD5119E0000EC96E000039
:1017D00000000000000000000000000000002E4E8D
:1017E00007D0C9CFF6FFC96E0800F5CFEEFFF5D7D9
:1017F000C9CFF6FF0800F5CFEEFF37D0D89081B003
:10180000D880F53681828192D89081B0D880F53623
:1018100081828192D89081B0D880F5368182819280
:10182000D89081B0D880F53681828192D89081B0ED
:10183000D880F53681828192D89081B0D880F536F3
:1018400081828192D89081B0D880F5368182819250
:10185000D89081B0D880F53681828192F5CFF6FF9D
:101860000800F5CFEEFF2E2EC9D731C0E1FF32C000
:10187000E2FF2FC0E9FF30C0EAFF440E0001645DC3
:1018800004E0450E0001645D22E104010CBFFDD7B8
:10189000D950050F006EDACF01F0090EDB50020DB2
:1018A0000050F324E96E0150F420EA6EEECF0EF4FE
:1018B000EDCF0FF40401400E0D6F400E04010C1724
:1018C00004010C7D880E04010C1318EC07F0D950AC
:1018D000150FE96EDACFEAFF400EEE5E000EEE5A0B
:1018E000000EEE5A000EEE5AEBD5150EDB50E76EE9
:1018F000190EE7CFDBFF440E0001645D04E0460EE5
:101900000001645D05E1040108BFFDD718EC07F094
:10191000D950010F006EDACF01F0090EDB50020D35
:101920000050F324E96E0150F420EA6E0A0EEECF67
:10193000DBFF0B0EEDCFDBFF090EDB70D950050F7F
:10194000006EDACF01F0090EDB50020D0050F324D7
:10195000E96E0150F420EA6E0C0EEECFDBFF0D0EA7
:10196000EDCFDBFF190EDB502E6E2E50010801E388
:10197000ADD00001BD5135E0440E0001645D04E0CE
:10198000460E0001645D13E10A0EDBCFE9FFDB2A9E
:101990000B0EDBCFEAFF01E3DB2AEF50F76A000F03
:1019A000F66E100EF7220800F550C96E01D0C96A14
:1019B000C750E8A0FDD7C950F76A000FF66E100EA9
:1019C000F7220800F550E66E0C0EDBCFE9FFDB2AAC
:1019D0000D0EDBCFEAFF01E3DB2AE552E750EF6EA5
:1019E00073D0440E0001645D04E0460E0001645DA6
:1019F00014E10A0EDBCFE9FFDB2A0B0EDBCFEAFF97
:101A000001E3DB2AEF50F76A000FF66E100EF722A3
:101A100008001F0EF5CFDBFF02D01F0EDB6A200E81
:101A2000DB6A080EF36E1D0EF3CFDBFF800EF36E44
:101A30001C0EF3CFDBFF1D0EDB50000827E281A058
:101A400009D0200EDBCFE7FF1C0EDB50E712200E83
:101A5000E7CFDBFF1C0EDBCFE6FF1F0EDB50E552AE
:101A6000E71402E0010E01D0000EE8B0828EE8A07B
:101A7000829E818281921D0EDB061C0EDBCFF3FF5E
:101A8000F390F3421C0EF3CFDBFFD5D7440E0001D9
:101A9000645D04E0450E0001645D16E1200EDB503C
:101AA000F76A000FF66E100EF7220800F550E66E8A
:101AB0000C0EDBCFE9FFDB2A0D0EDBCFEAFF01E3E3
:101AC000DB2AE552E750EF6E2E064FD70001BD51DD
:101AD00002E08192C69A070E006E016A026A036AEA
:101AE000D950100FE96EDACFEAFFEE500016EE5033
:101AF0000116EE500216EE5003161D0E00C0DBFF5D
:101B00001D0EDB5005E1080EF36E1D0EF3CFDBFF5B
:101B1000440E0001645D04E0460E0001645D11E1C5
:101B20000A0EDBCFE9FF0B0EDBCFEAFFEF50F76ABF
:101B3000000FF66E100EF72208001F0EF5CFDBFF28
:101B400002D01F0EDB6A200EDB6A800EF36E1C0EC5
:101B5000F3CFDBFF1D0EDB5000082BE21D0EDB0474
:101B600001E1838881A009D0200EDBCFE7FF1C0EA6
:101B7000DB50E712200EE7CFDBFF1C0EDBCFE6FFCA
:101B80001F0EDB50E552E71402E0010E01D0000EFB
:101B9000E8B0828EE8A0829E818281921D0EDB06D3
:101BA0001C0EDBCFF3FFF390F3421C0EF3CFDBFFF1
:101BB000D1D7440E0001645D04E0450E0001645D70
:101BC00013E1200EDB50F76A000FF66E100EF722BD
:101BD0000800F550E66E0C0EDBCFE9FF0D0EDBCFF3
:101BE000EAFFE552E750EF6E440E0001645D04E049
:101BF000450E0001645D22E104010CBFFDD7D95000
:101C0000050F006EDACF01F0090EDB50020D005017
:101C1000F324E96E0150F420EA6EEECF0EF4EDCF1E
:101C20000FF4190EDBCF0DF4400E04010C17040164
:101C30000C7D880E04010C1318EC07F0440E000113
:101C4000645D04E0460E0001645D10E10401280EAD
:101C50000A6F040E0B6F0401400E096F400E040161
:101C600008170401087D880E04010813DF6AF50EC9
:101C70000001625D03E20001626B03D0F50E00011A
:101C8000625FECEF15F0DF6A00016269100E65C05B
:101C9000DBFF110E66C0DBFF120E67C0DBFF130E09
:101CA00068C0DBFF100EDBCF00F0110EDBCF01F0C0
:101CB000120EDBCF02F0130EDBCF03F00050011049
:101CC0000210031002E1ECEF15F01B0E69C0DBFF00
:101CD000D950010FE96EDACFEAFF280EEE6E040E3E
:101CE000ED6ED950030FE96EDACFEAFF680EEE6EA3
:101CF000040EED6ED950050FE96EDACFEAFFA80E9B
:101D0000EE6E040EED6ED950070FE96EDACFEAFFE2
:101D1000E80EEE6E040EED6E010EF36E090EF3CFBB
:101D2000DBFF060EF36E1A0EF3CFDBFF1A0EDB504D
:101D3000016A640F006E000E01220E0E00C0DBFF70
:101D40000F0E01C0DBFFD950050F006EDACF01F096
:101D5000090EDB50020D0050F324E96E0150F4200F
:101D6000EA6E0C0EEECFDBFF0D0EEDCFDBFF100E9B
:101D7000DBCF1CF0110EDBCF1DF0120EDBCF1EF0FF
:101D8000130EDBCF1FF0070E1C26000E1D22000EC7
:101D90001E22000E1F22080E216E226A236A246A68
:101DA0000EEC27F0150E1CC0DBFF160E1DC0DBFF6E
:101DB000170E1EC0DBFF180E1FC0DBFF1B0EDBA2C1
:101DC0000DD0D950150FE96EDACFEAFFD890EF3673
:101DD000010EEB36020EEB36030EEB361A0EDBCF9E
:101DE00000F0016A026A036AD950150FE96EDACF72
:101DF000EAFF0050EE260150EE220250EE22035080
:101E0000EE2281921B0EDBB20BD01B0EDB50040BBB
:101E100002E0010E01D0000EE8B08388E8A08398AC
:101E20001B0EDBB60BD01B0EDB50100B02E0010EBD
:101E300001D0000EE8B0828EE8A0829E1B0EDB9ED1
:101E4000150EDBCF1DF0160EDBCF1EF0170EDBCF0D
:101E50001FF0180EDBCF20F02034000E201809E60A
:101E6000D880400E1D54000E1E54000E1F54000E4C
:101E7000205401E317D31B0EDB8E0001625102E1F7
:101E8000000162691B0EDB500B0B0B0A01E1D8D17C
:101E9000010A01E177D1030A01E119D1010A01E147
:101EA00092D0090A01E0CCD10001BD514CE01B0EDB
:101EB000DB50100B02E0FF0E01D0000EE76E1F0E8C
:101EC000E7CFDBFF9382C68A93921A0EDBCFE6FF41
:101ED000400EE552D880E7542E6EE9CF2FF0EACFBE
:101EE00030F0E1CF31F0E2CF32F0000EF66E100E9E
:101EF000F76EF86A0C0EDBCFE9FF0D0EDBCFEAFFC1
:101F0000000EC96E0000000000000000000000008C
:101F1000000000002E4E07D0C9CFF6FFC96E0800A2
:101F2000F5CFEEFFF5D7C9CFF6FF0800F5CFEEFFEE
:101F30008192C69A2FC0E9FF30C0EAFF31C0E1FFAD
:101F400032C0E2FF3FD01A0EDBCFE6FF400EE55273
:101F5000D880E7542E6E2E5035E0200EDB6A080E36
:101F6000F36E1D0EF3CFDBFF010EF36E1C0EF3CFED
:101F7000DBFF1D0EDB5018E081A009D0200EDBCF67
:101F8000E7FF1C0EDB50E712200EE7CFDBFF81825C
:101F900081921D0EDB061C0EDBCFF3FFF39EF34692
:101FA0001C0EF3CFDBFFE5D70C0EDBCFE9FFDB2AFE
:101FB0000D0EDBCFEAFF01E3DB2A200EDBCFEFFFC4
:101FC0002E06C9D7B4D10001BD513FE09382C68A25
:101FD00093921A0EDBCFE6FF400EE552D880E7540D
:101FE0002E6EE9CF2FF0EACF30F0E1CF31F0E2CF23
:101FF00032F0000EF66E100EF76EF86A0E0EDBCFA2
:10200000E9FF0F0EDBCFEAFFEECFF6FF0800F5CFBA
:10201000C9FF000000002E4E08D0EECFF6FF0800EA
:10202000C9CFF6FFF5CFC9FFF6D7000000000000CA
:10203000C9CFF6FF8192C69A2FC0E9FF30C0EAFFF0
:1020400031C0E1FF32C0E2FF41D01A0EDBCFE6FF24
:10205000400EE552D880E7542E6E2E5037E00E0E1B
:10206000DBCFE9FFDB2A0F0EDBCFEAFF01E3DB2A40
:102070001F0EEFCFDBFF080EF36E1D0EF3CFDBFF5D
:10208000010EF36E1C0EF3CFDBFF1D0EDB501CE0C8
:102090001C0EDBCFE6FF1F0EDB50E552E71402E01B
:1020A000010E01D0000EE8B0828EE8A0829E8182EF
:1020B00081921D0EDB061C0EDBCFF3FFF39EF34671
:1020C0001C0EF3CFDBFFE1D72E06C7D730D11A0E97
:1020D000DBCFE6FF400EE552D880E7542E6E2E503F
:1020E00050E00E0EDBCFE9FFDB2A0F0EDBCFEAFF5D
:1020F00001E3DB2A1F0EEFCFDBFF200EDB6A080EA9
:10210000F36E1D0EF3CFDBFF010EF36E1C0EF3CF4B
:10211000DBFF1D0EDB5027E081A009D0200EDBCFB6
:10212000E7FF1C0EDB50E712200EE7CFDBFF1C0E93
:10213000DBCFE6FF1F0EDB50E552E71402E0010E95
:1021400001D0000EE8B0828EE8A0829E818281924A
:102150001D0EDB061C0EDBCFF3FFF39EF3461C0EB9
:10216000F3CFDBFFD6D70C0EDBCFE9FFDB2A0D0E5A
:10217000DBCFEAFF01E3DB2A200EDBCFEFFF2E06E9
:10218000AED7D5D01A0EDBCFE6FF400EE552D88091
:10219000E7542E6E2E5053E00E0EDBCFE9FFDB2A04
:1021A0000F0EDBCFEAFF01E3DB2A1E0EEFCFDBFFD2
:1021B0000E0EDBCFE9FFDB2A0F0EDBCFEAFF01E3D8
:1021C000DB2A1F0EEFCFDBFF080EF36E1D0EF3CFE1
:1021D000DBFF010EF36E1C0EF3CFDBFF1D0EDB5099
:1021E0002BE01C0EDBCFE6FF1E0EDB50E552E714A2
:1021F00002E0010E01D0000EE8B08388E8A08398C9
:102200001C0EDBCFE6FF1F0EDB50E552E71402E0A9
:10221000010E01D0000EE8B0828EE8A0829E81827D
:1022200081921D0EDB061C0EDBCFF3FFF39EF346FF
:102230001C0EF3CFDBFFD2D7020E2E5EABD777D0CA
:102240001A0EDBCFE6FF400EE552D880E7542E6E23
:102250002E506CE00E0EDBCFE9FFDB2A0F0EDBCF3A
:10226000EAFF01E3DB2A1E0EEFCFDBFF0E0EDBCF12
:10227000E9FFDB2A0F0EDBCFEAFF01E3DB2A1F0EAB
:10228000EFCFDBFF200EDB6A080EF36E1D0EF3CFDF
:10229000DBFF010EF36E1C0EF3CFDBFF1D0EDB50D8
:1022A00036E081A009D0200EDBCFE7FF1C0EDB500B
:1022B000E712200EE7CFDBFF1C0EDBCFE6FF1E0E82
:1022C000DB50E552E71402E0010E01D0000EE8B049
:1022D0008388E8A083981C0EDBCFE6FF1F0EDB503F
:1022E000E552E71402E0010E01D0000EE8B0828E44
:1022F000E8A0829E818281921D0EDB061C0EDBCF40
:10230000F3FFF39EF3461C0EF3CFDBFFC7D70C0E93
:10231000DBCFE9FFDB2A0D0EDBCFEAFF01E3DB2A8F
:10232000200EDBCFEFFF020E2E5E92D700D01B0EE9
:10233000DBA037D004010CBFFDD7D950050F006ECC
:10234000DACF01F0090EDB50020D0050F324E96EE4
:102350000150F420EA6EEECF0EF4EDCF0FF41B0E19
:10236000DBA20CD01A0EDBCFE6FF400EE552D88080
:10237000E754FE0BE84204010D6F09D01A0EDBCFC3
:10238000E6FF400EE552D880E75404010D6F18ECCB
:1023900007F0400E04010C1704010C7D880E0401A7
:1023A0000C131B0EDBA644D0040108BFFDD7150E8D
:1023B000DBCF00F0160EDBCF01F0170EDBCF02F003
:1023C000180EDBCF03F0400E005E000E015A000E27
:1023D000025A000E035A0334000E031809E6D8808F
:1023E000400E0054000E0154000E0254000E03541F
:1023F0001FE2D950010F006EDACF01F0090EDB5059
:10240000020D0050F324E96E0150F420EA6EEECF85
:102410000AF4EDCF0BF40401400E096F400E0401E5
:1024200008170401087D880E0401081318EC07F052
:10243000090EDB70D950010F006EDACF01F0090EE2
:10244000DB50020D0050F324E96E0150F420EA6ED7
:102450000E0EEECFDBFF0F0EEDCFDBFFD950050FD9
:10246000006EDACF01F0090EDB50020D0050F324AC
:10247000E96E0150F420EA6E0C0EEECFDBFF0D0E7C
:10248000EDCFDBFF1A0EDB6AD950150FE96EDACFFC
:10249000EAFF400EEE5E000EEE5A000EEE5A000EFF
:1024A000EE5ACED41A0EDBCF00F0016A026A036A3C
:1024B000D950150FE96EDACFEAFF0050EE5E0150F9
:1024C000EE5A0250EE5A0350EE5A1B0EDB500B0B25
:1024D0000B0A01E136D1010A01E1D9D0030A01E179
:1024E0007FD0010A3FE0090A01E02BD1150EDB5035
:1024F0002E6E2E50010835E2200EDB6A080EF36EB8
:102500001D0EF3CFDBFF010EF36E1C0EF3CFDBFFCE
:102510001D0EDB5018E081A009D0200EDBCFE7FFB5
:102520001C0EDB50E712200EE7CFDBFF8182819289
:102530001D0EDB061C0EDBCFF3FFF39EF3461C0ED5
:10254000F3CFDBFFE5D70C0EDBCFE9FFDB2A0D0E67
:10255000DBCFEAFF01E3DB2A200EDBCFEFFF2E0605
:10256000C8D762D1150EDB502E6E2E50010837E20F
:102570000E0EDBCFE9FFDB2A0F0EDBCFEAFF01E314
:10258000DB2A1F0EEFCFDBFF080EF36E1D0EF3CF1D
:10259000DBFF010EF36E1C0EF3CFDBFF1D0EDB50D5
:1025A0001CE01C0EDBCFE6FF1F0EDB50E552E714EC
:1025B00002E0010E01D0000EE8B0828EE8A0829EFB
:1025C000818281921D0EDB061C0EDBCFF3FFF39E92
:1025D000F3461C0EF3CFDBFFE1D72E06C6D724D17E
:1025E000150EDB502E6E2E50010850E20E0EDBCF82
:1025F000E9FFDB2A0F0EDBCFEAFF01E3DB2A1F0E28
:10260000EFCFDBFF200EDB6A080EF36E1D0EF3CF5B
:10261000DBFF010EF36E1C0EF3CFDBFF1D0EDB5054
:1026200027E081A009D0200EDBCFE7FF1C0EDB5096
:10263000E712200EE7CFDBFF1C0EDBCFE6FF1F0EFD
:10264000DB50E552E71402E0010E01D0000EE8B0C5
:10265000828EE8A0829E818281921D0EDB061C0E76
:10266000DBCFF3FFF39EF3461C0EF3CFDBFFD6D791
:102670000C0EDBCFE9FFDB2A0D0EDBCFEAFF01E317
:10268000DB2A200EDBCFEFFF2E06ADD7CDD0150E07
:10269000DB502E6E2E50020853E20E0EDBCFE9FF08
:1026A000DB2A0F0EDBCFEAFF01E3DB2A1E0EEFCFA2
:1026B000DBFF0E0EDBCFE9FFDB2A0F0EDBCFEAFFDD
:1026C00001E3DB2A1F0EEFCFDBFF080EF36E1D0EBA
:1026D000F3CFDBFF010EF36E1C0EF3CFDBFF1D0EFD
:1026E000DB502BE01C0EDBCFE6FF1E0EDB50E5526D
:1026F000E71402E0010E01D0000EE8B08388E8A0E4
:1027000083981C0EDBCFE6FF1F0EDB50E552E7146B
:1027100002E0010E01D0000EE8B0828EE8A0829E99
:10272000818281921D0EDB061C0EDBCFF3FFF39E30
:10273000F3461C0EF3CFDBFFD2D7020E2E5EAAD7D4
:1027400073D0150EDB502E6E2E5002086CE20E0E6A
:10275000DBCFE9FFDB2A0F0EDBCFEAFF01E3DB2A49
:102760001E0EEFCFDBFF0E0EDBCFE9FFDB2A0F0ED5
:10277000DBCFEAFF01E3DB2A1F0EEFCFDBFF200EEA
:10278000DB6A080EF36E1D0EF3CFDBFF010EF36E56
:102790001C0EF3CFDBFF1D0EDB5036E081A009D00D
:1027A000200EDBCFE7FF1C0EDB50E712200EE7CF39
:1027B000DBFF1C0EDBCFE6FF1E0EDB50E552E714FD
:1027C00002E0010E01D0000EE8B08388E8A08398F3
:1027D0001C0EDBCFE6FF1F0EDB50E552E71402E0D4
:1027E000010E01D0000EE8B0828EE8A0829E8182A8
:1027F00081921D0EDB061C0EDBCFF3FFF39EF3462A
:102800001C0EF3CFDBFFC7D70C0EDBCFE9FFDB2AB3
:102810000D0EDBCFEAFF01E3DB2A200EDBCFEFFF5B
:10282000020E2E5E91D700D0070E006E016A026A7A
:10283000036AD950100FE96EDACFEAFFEE500016A6
:10284000EE500116EE500216EE5003161D0E00C09B
:10285000DBFF1D0EDB5005E1080EF36E1D0EF3CFFE
:10286000DBFF1B0EDBA20CD00E0EDBCFE9FFDB2A59
:102870000F0EDBCFEAFF01E3DB2A1E0EEFCFDBFFFB
:102880001B0EDBA60AD00E0EDBCFE9FF0F0EDBCF4F
:10289000EAFF1F0EEFCFDBFF0BD01B0EDB50100B40
:1028A00002E0FF0E01D0000EE76E1F0EE7CFDBFF48
:1028B000200EDB6A010EF36E1C0EF3CFDBFF1D0E44
:1028C000DB5039E081A009D0200EDBCFE7FF1C0EE2
:1028D000DB50E712200EE7CFDBFF1B0EDBA20FD091
:1028E0001C0EDBCFE6FF1E0EDB50E552E71402E0C4
:1028F000010E01D0000EE8B08388E8A083981C0E7A
:10290000DBCFE6FF1F0EDB50E552E71402E0010EBD
:1029100001D0000EE8B0828EE8A0829E8182819272
:102920001D0EDB061C0EDBCFF3FFF39EF3461C0EE1
:10293000F3CFDBFFC4D71B0EDBA044D00C0EDBCFE4
:10294000E9FF0D0EDBCFEAFF200EDBCFEFFF040126
:102950000CBFFDD7D950050F006EDACF01F0090E7C
:10296000DB50020D0050F324E96E0150F420EA6EB2
:10297000EECF0EF4EDCF0FF41B0EDBA216D0150E2A
:10298000DBCF1CF0160EDBCF1DF0170EDBCF1EF0D9
:10299000180EDBCF1FF0020E216E226A236A246A12
:1029A0000EEC27F01CC00DF403D0150EDBCF0DF498
:1029B00018EC07F0400E04010C1704010C7D880E82
:1029C00004010C131B0EDB50800B14E01B0EDB50BC
:1029D000080B10E00401280E0A6F040E0B6F0401AF
:1029E000400E096F400E040108170401087D880E8F
:1029F00004010813F50E0001625D03E20001626B41
:102A000003D0F50E0001625FE7D000016835000ECB
:102A1000681909E6D880550E6555150E6655000EE5
:102A20006755000E685531E265C000F066C001F0E0
:102A300067C002F068C003F0550E216E150E226EBD
:102A4000236A246A00C01CF001C01DF002C01EF001
:102A500003C01FF00EEC27F01CC000F01DC001F0F9
:102A60001EC002F01FC003F0002A000E0122000E5B
:102A70000222000E032200C060F001C061F00001DC
:102A80006051611101E0FBD715D065C02AF066C026
:102A90002BF067C02CF068C02DF02A502B102C10A2
:102AA0002D1008E0817281722A06000E2B5A2C5AD2
:102AB0002D5AF3D7050EDF6E8FD0100E65C0DBFFE9
:102AC000110E66C0DBFF120E67C0DBFF130E68C07D
:102AD000DBFF100EDBCF00F0110EDBCF01F0120E8A
:102AE000DBCF02F0130EDBCF03F000500110021019
:102AF000031001E171D0100EDBCF1CF0110EDBCF03
:102B00001DF0120EDBCF1EF0130EDBCF1FF0020EF6
:102B10001D26000E1E22000E1F221C06000E1D5A2E
:102B2000000E1E5A000E1F5A216A020E226E236AE0
:102B3000246A0EEC27F0150E1CC0DBFF160E1DC01C
:102B4000DBFF170E1EC0DBFF180E1FC0DBFF150ECC
:102B5000DBCF1DF0160EDBCF1EF0170EDBCF1FF004
:102B6000180EDBCF20F02034000E201809E6D880A4
:102B7000000E1D54000E1E54000E1F54000E205453
:102B80001BE2040108BFFDD70401400E096F18ECD9
:102B900007F0400E040108170401087D880E0401A7
:102BA0000813D950150FE96EDACFEAFFEE06000ED2
:102BB000EE5AEE5AEE5ACBD7DF6A0ED00001000172
:102BC0006551010B02E0808001D08090DF6A04D063
:102BD000FF0002D0DF6A00D0DF500EE004010CBF1E
:102BE000FDD7DFCFE6FF640EE66E000EE66EECEC7E
:102BF00025F0E552E552E552400EE66E640EE66EB3
:102C0000000EE66EA8EC26F0E552E552E55200090A
:102C100002E1E5EF21F018EC07F000010A0E626F07
:102C200000016451FF0A02E1CCEF21F0B70A02E192
:102C30004BEF21F00F0A02E1E9EF20F0080A02E170
:102C4000B9EF1AF0090A01E1C4D0020A01E1C1D0CA
:102C5000010A01E1BED0060A01E191D0010A70E04B
:102C60000E0A5DE00D0A32E0010A17E00E0A11E0DB
:102C7000030A0BE07C0A02E0CEEF21F00001320EE5
:102C8000626F010EDF6ED0EF21F00001A593D0EF4F
:102C900021F00001A583D0EF21F0B8C000F0B9C049
:102CA00001F0026A00C0E6FF01C0E6FF02C0E6FFD5
:102CB000650EE66E000EE66ED7EC07F0036E050EAD
:102CC000E15E0350400EDF6ED0EF21F0BC0EE66EE9
:102CD000000EE66EBB0EE66E000EE66EFDEC22F018
:102CE000E552E552E552E5520001BA6F0001BB51D1
:102CF000E8B0808AE8A0809A0001BC5102E0FF0E93
:102D000001D0000E336E0001BB5102E0000E01D075
:102D1000010E0001BD6F010EDF6ED0EF21F067C024
:102D2000E6FF65C0E6FF66C0E6FF4FEC24F0E55223
:102D3000E552E5520001686F050EDF6ED0EF21F01D
:102D4000000100016551010B02E0818401D08194F2
:102D5000000100016551020B02E0818601D08196DD
:102D60000001BB1DE8B0808AE8A0809A0001BB5139
:102D7000E8B0808AE8A0809ADF6AD0EF21F0805026
:102D8000080B01E0010E0001BC1900016595E8B0D7
:102D90006585000100016551010B02E0818401D0CD
:102DA0008194000100016551020B02E0818601D08F
:102DB00081960001BB1DE8B0808AE8A0809A0001DE
:102DC000BB51E8B0808AE8A0809A020EDF6ED0EF97
:102DD00021F000016269100E65C0DBFF110E66C0B4
:102DE000DBFF120E67C0DBFF130E68C0DBFF100EA7
:102DF000DBCF00F0110EDBCF01F0120EDBCF02F0C3
:102E0000130EDBCF03F0005001100210031002E19B
:102E1000D0EF21F0100EDBCF1CF0110EDBCF1DF038
:102E2000120EDBCF1EF0130EDBCF1FF0070E1C2699
:102E3000000E1D22000E1E22000E1F22080E216E03
:102E4000226A236A246A0EEC27F0150E1CC0DBFFF1
:102E5000160E1DC0DBFF170E1EC0DBFF180E1FC0B5
:102E6000DBFF0001BB51E8B0808AE8A0809A819422
:102E7000090EDB6AD950010FE96EDACFEAFF280E9E
:102E8000EE6E050EED6ED950030FE96EDACFEAFF54
:102E9000680EEE6E050EED6ED950050FE96EDACFB5
:102EA000EAFFA80EEE6E050EED6ED950070FE96E23
:102EB000DACFEAFFE80EEE6E050EED6E150EDBCFF3
:102EC0001DF0160EDBCF1EF0170EDBCF1FF0180E15
:102ED000DBCF20F02034000E201809E6D880400E09
:102EE0001D54000E1E54000E1F54000E205401E30A
:102EF000ADD10001625102E100016269440E00019E
:102F0000645D04E0460E0001645D4DE1040110BF04
:102F1000FDD7D950010F006EDACF01F0090EDB505A
:102F2000020D0050F324E96E0150F420EA6E0A0EFF
:102F3000EECFDBFF0B0EEDCFDBFF090EDB70D950C0
:102F4000050F006EDACF01F0090EDB50020D0050C4
:102F5000F324E96E0150F420EA6E0C0EEECFDBFF95
:102F60000D0EEDCFDBFFD950010F006EDACF01F06F
:102F7000090EDB50020D0050F324E96E0150F420DD
:102F8000EA6EEECF12F4EDCF13F40401400E116F90
:102F900018EC07F0400E040110170401107D880E94
:102FA0000401101316D0090EDB70D950050F006E06
:102FB000DACF01F0090EDB50020D0050F324E96E68
:102FC0000150F420EA6E0C0EEECFDBFF0D0EEDCFBC
:102FD000DBFF400E2E6EE9CF2FF0EACF30F0E1CFCD
:102FE00031F0E2CF32F0460E0001645D41E1000EA7
:102FF000F66E100EF76EF86A0A0EDBCFE9FF0B0EC5
:10300000DBCFEAFFEECFF6FF0800F5368186D8A0C9
:103010008196807A807AF5368186D8A08196807AEA
:10302000807AF5368186D8A08196807A807AF536C6
:103030008186D8A08196807A807AF5368186D8A05C
:103040008196807A807AF5368186D8A08196807ABA
:10305000807AF5368186D8A08196807A807AF53696
:103060008186D8A08196807A807A2E2ECBD7AED05A
:10307000440E0001645D66E1000EF66E100EF76E00
:10308000F86A0A0EDBCFE9FF0B0EDBCFEAFF0C0E6E
:10309000DBCFE1FF0D0EDBCFE2FFEECFF6FF080046
:1030A000D89080B6D880F5368186D8A08196807A6F
:1030B000807AD89080B6D880F5368186D8A081965F
:1030C000807A807AD89080B6D880F5368186D8A06C
:1030D0008196807A807AD89080B6D880F5368186BD
:1030E000D8A08196807A807AD89080B6D880F5363C
:1030F0008186D8A08196807A807AD89080B6D88050
:10310000F5368186D8A08196807A807AD89080B66C
:10311000D880F5368186D8A08196807A807AD8903A
:1031200080B6D880F5368186D8A08196807A807A5C
:103130003350F51AF5CFF6FF0800F5CFE6FF2E2E37
:10314000ACD744D0000EF66E100EF76EF86A0C0E77
:10315000DBCFE9FF0D0EDBCFEAFFD89080B6D88039
:10316000F536807A807AD89080B6D880F536807A25
:10317000807AD89080B6D880F536807A807AD890D8
:1031800080B6D880F536807A807AD89080B6D8809C
:10319000F536807A807AD89080B6D880F536807AF5
:1031A000807AD89080B6D880F536807A807AD890A8
:1031B00080B6D880F536807A807A3350F51AF5CF0C
:1031C000F6FF0800F5CFEEFF2E2EC7D731C0E1FF86
:1031D00032C0E2FF2FC0E9FF30C0EAFF440E000119
:1031E000645D04E0450E0001645D22E1040114BF4A
:1031F000FDD7D950050F006EDACF01F0090EDB5074
:10320000020D0050F324E96E0150F420EA6EEECF77
:1032100016F4EDCF17F40401400E156F400E0401B3
:1032200014170401147D880E0401141318EC07F020
:10323000D950150FE96EDACFEAFF400EEE5E000EB0
:10324000EE5A000EEE5A000EEE5A38D6150EDB502E
:10325000E76E190EE7CFDBFF440E0001645D04E06A
:10326000460E0001645D05E1040110BFFDD718ECB6
:1032700007F0D950010F006EDACF01F0090EDB50D4
:10328000020D0050F324E96E0150F420EA6E0A0E9C
:10329000EECFDBFF0B0EEDCFDBFF090EDB70D9505D
:1032A000050F006EDACF01F0090EDB50020D005061
:1032B000F324E96E0150F420EA6E0C0EEECFDBFF32
:1032C0000D0EEDCFDBFF190EDB502E6E2E500108D8
:1032D00001E376D0440E0001645D04E0460E000177
:1032E000645D14E10A0EDBCFE9FFDB2A0B0EDBCFB6
:1032F000EAFF01E3DB2AEF50F76A000FF66E100ECB
:10330000F72208001F0EF5CFDBFF02D01F0EDB6A8D
:10331000200EDB6A080EF36E1D0EF3CFDBFF800E6E
:10332000F36E1C0EF3CFDBFF1D0EDB50000827E20F
:1033300080A609D0200EDBCFE7FF1C0EDB50E71282
:10334000200EE7CFDBFF1C0EDBCFE6FF1F0EDB50AE
:10335000E552E71402E0010E01D0000EE8B08186CC
:10336000E8A08196807A807A1D0EDB061C0EDBCFEA
:10337000F3FFF390F3421C0EF3CFDBFFD5D7440EDF
:103380000001645D04E0450E0001645D17E1200E5C
:10339000DB503318F76A000FF66E100EF7220800A4
:1033A000F550E66E0C0EDBCFE9FFDB2A0D0EDBCF0E
:1033B000EAFF01E3DB2AE552E750EF6E2E0686D7DF
:1033C000070E006E016A026A036AD950100FE96E97
:1033D000DACFEAFFEE500016EE500116EE5002165C
:1033E000EE5003161D0E00C0DBFF1D0EDB5005E185
:1033F000080EF36E1D0EF3CFDBFF440E0001645D7B
:1034000004E0460E0001645D11E10A0EDBCFE9FF26
:103410000B0EDBCFEAFFEF50F76A000FF66E100ECF
:10342000F72208001F0EF5CFDBFF02D01F0EDB6A6C
:10343000200EDB6A800EF36E1C0EF3CFDBFF1D0E39
:10344000DB5000082BE21D0EDB0401E1818480A625
:1034500009D0200EDBCFE7FF1C0EDB50E712200E59
:10346000E7CFDBFF1C0EDBCFE6FF1F0EDB50E55284
:10347000E71402E0010E01D0000EE8B08186E8A05A
:103480008196807A807A1D0EDB061C0EDBCFF3FF5F
:10349000F390F3421C0EF3CFDBFFD1D7440E0001B3
:1034A000645D04E0450E0001645D14E1200EDB5014
:1034B0003318F76A000FF66E100EF7220800F55069
:1034C000E66E0C0EDBCFE9FF0D0EDBCFEAFFE55217
:1034D000E750EF6E440E0001645D04E0450E00010C
:1034E000645D22E1040114BFFDD7D950050F006EC1
:1034F000DACF01F0090EDB50020D0050F324E96E23
:103500000150F420EA6EEECF16F4EDCF17F4190E49
:10351000DBCF15F4400E040114170401147D880E4E
:103520000401141318EC07F0440E0001645D04E07C
:10353000460E0001645D10E10401280E126F050EB5
:10354000136F0401400E116F400E040110170401A7
:10355000107D880E04011013DF6AF50E0001625D14
:1035600003E20001626B03D0F50E0001625FD0EF51
:1035700021F0DF6A00016269100E65C0DBFF110EE9
:1035800066C0DBFF120E67C0DBFF130E68C0DBFFF7
:10359000100EDBCF00F0110EDBCF01F0120EDBCFEF
:1035A00002F0130EDBCF03F00050011002100310E5
:1035B00002E1D0EF21F01B0E69C0DBFFD950010FF3
:1035C000E96EDACFEAFF280EEE6E050EED6ED950E9
:1035D000030FE96EDACFEAFF680EEE6E050EED6EB0
:1035E000D950050FE96EDACFEAFFA80EEE6E050E90
:1035F000ED6ED950070FE96EDACFEAFFE80EEE6EF6
:10360000050EED6E010EF36E090EF3CFDBFF060E15
:10361000F36E1A0EF3CFDBFF1A0EDB50016A640F54
:10362000006E000E01220E0E00C0DBFF0F0E01C067
:10363000DBFFD950050F006EDACF01F0090EDB5029
:10364000020D0050F324E96E0150F420EA6E0C0ED6
:10365000EECFDBFF0D0EEDCFDBFF100EDBCF1CF04E
:10366000110EDBCF1DF0120EDBCF1EF0130EDBCFE1
:103670001FF0070E1C26000E1D22000E1E22000E3B
:103680001F22080E216E226A236A246A0EEC27F09C
:10369000150E1CC0DBFF160E1DC0DBFF170E1EC073
:1036A000DBFF180E1FC0DBFF1B0EDBA20DD0D950B5
:1036B000150FE96EDACFEAFFD890EF36010EEB3640
:1036C000020EEB36030EEB361A0EDBCF00F0016A6A
:1036D000026A036AD950150FE96EDACFEAFF00508B
:1036E000EE260150EE220250EE220350EE22809A86
:1036F0001B0EDBB20BD01B0EDB50040B02E0010EE5
:1037000001D0000EE8B08184E8A081941B0EDBB6E6
:103710000BD01B0EDB50100B02E0010E01D0000E8F
:10372000E8B08186E8A081961B0EDB9E150EDBCFEC
:103730001DF0160EDBCF1EF0170EDBCF1FF0180E9C
:10374000DBCF20F02034000E201809E6D880400E90
:103750001D54000E1E54000E1F54000E205401E391
:1037600085D21B0EDB8E0001625102E1000162690D
:103770001B0EDB500B0B0B0A01E146D1010A01E1E4
:10378000E5D0030A01E187D0010A43E0090A01E01C
:103790003BD11A0EDBCFE6FF400EE552D880E7544E
:1037A0002E6E2E5035E0200EDB6A080EF36E1D0ED5
:1037B000F3CFDBFF010EF36E1C0EF3CFDBFF1D0E0C
:1037C000DB5018E080A609D0200EDBCFE7FF1C0EEF
:1037D000DB50E712200EE7CFDBFF808A809A1D0EB8
:1037E000DB061C0EDBCFF3FFF39EF3461C0EF3CF7C
:1037F000DBFFE5D70C0EDBCFE9FFDB2A0D0EDBCFBD
:10380000EAFF01E3DB2A200EDBCFEFFF2E06C9D74C
:1038100072D11A0EDBCFE6FF400EE552D880E75496
:103820002E6E2E5037E00E0EDBCFE9FFDB2A0F0E97
:10383000DBCFEAFF01E3DB2A1F0EEFCFDBFF080E31
:10384000F36E1D0EF3CFDBFF010EF36E1C0EF3CFF4
:10385000DBFF1D0EDB501CE01C0EDBCFE6FF1F0E56
:10386000DB50E552E71402E0010E01D0000EE8B093
:103870008186E8A08196808A809A1D0EDB061C0E48
:10388000DBCFF3FFF39EF3461C0EF3CFDBFFE1D754
:103890002E06C7D730D11A0EDBCFE6FF400EE55219
:1038A000D880E7542E6E2E5050E00E0EDBCFE9FF8D
:1038B000DB2A0F0EDBCFEAFF01E3DB2A1F0EEFCF7F
:1038C000DBFF200EDB6A080EF36E1D0EF3CFDBFF6D
:1038D000010EF36E1C0EF3CFDBFF1D0EDB5027E055
:1038E00080A609D0200EDBCFE7FF1C0EDB50E712CD
:1038F000200EE7CFDBFF1C0EDBCFE6FF1F0EDB50F9
:10390000E552E71402E0010E01D0000EE8B0818616
:10391000E8A08196808A809A1D0EDB061C0EDBCF04
:10392000F3FFF39EF3461C0EF3CFDBFFD6D70C0E4E
:10393000DBCFE9FFDB2A0D0EDBCFEAFF01E3DB2A59
:10394000200EDBCFEFFF2E06AED7D5D01A0EDBCF81
:10395000E6FF400EE552D880E7542E6E2E5053E01D
:103960000E0EDBCFE9FFDB2A0F0EDBCFEAFF01E310
:10397000DB2A1E0EEFCFDBFF0E0EDBCFE9FFDB2ACB
:103980000F0EDBCFEAFF01E3DB2A1F0EEFCFDBFFD9
:10399000080EF36E1D0EF3CFDBFF010EF36E1C0E4F
:1039A000F3CFDBFF1D0EDB502BE01C0EDBCFE6FF61
:1039B0001E0EDB50E552E71402E0010E01D0000EAE
:1039C000E8B08184E8A081941C0EDBCFE6FF1F0ED7
:1039D000DB50E552E71402E0010E01D0000EE8B022
:1039E0008186E8A08196808A809A1D0EDB061C0ED7
:1039F000DBCFF3FFF39EF3461C0EF3CFDBFFD2D7F2
:103A0000020E2E5EABD777D01A0EDBCFE6FF400E4C
:103A1000E552D880E7542E6E2E506CE00E0EDBCFB0
:103A2000E9FFDB2A0F0EDBCFEAFF01E3DB2A1E0EE4
:103A3000EFCFDBFF0E0EDBCFE9FFDB2A0F0EDBCF74
:103A4000EAFF01E3DB2A1F0EEFCFDBFF200EDB6A6C
:103A5000080EF36E1D0EF3CFDBFF010EF36E1C0E8E
:103A6000F3CFDBFF1D0EDB5036E080A609D0200E21
:103A7000DBCFE7FF1C0EDB50E712200EE7CFDBFFAA
:103A80001C0EDBCFE6FF1E0EDB50E552E71402E012
:103A9000010E01D0000EE8B08184E8A081941C0ED4
:103AA000DBCFE6FF1F0EDB50E552E71402E0010E0C
:103AB00001D0000EE8B08186E8A08196808A809AC5
:103AC0001D0EDB061C0EDBCFF3FFF39EF3461C0E30
:103AD000F3CFDBFFC7D70C0EDBCFE9FFDB2A0D0EE0
:103AE000DBCFEAFF01E3DB2A200EDBCFEFFF020E84
:103AF0002E5E92D700D01B0EDBA037D0040114BF7E
:103B0000FDD7D950050F006EDACF01F0090EDB505A
:103B1000020D0050F324E96E0150F420EA6EEECF5E
:103B200016F4EDCF17F41B0EDBA20CD01A0EDBCF70
:103B3000E6FF400EE552D880E754FE0BE842040150
:103B4000156F09D01A0EDBCFE6FF400EE552D88084
:103B5000E7540401156F18EC07F0400E0401141728
:103B60000401147D880E040114131B0EDBA644D03F
:103B7000040110BFFDD7150EDBCF00F0160EDBCF12
:103B800001F0170EDBCF02F0180EDBCF03F0400E72
:103B9000005E000E015A000E025A000E035A033452
:103BA000000E031809E6D880400E0054000E0154A0
:103BB000000E0254000E03541FE2D950010F006E94
:103BC000DACF01F0090EDB50020D0050F324E96E4C
:103BD0000150F420EA6EEECF12F4EDCF13F404019D
:103BE000400E116F400E040110170401107D880E65
:103BF0000401101318EC07F0090EDB70D950010F07
:103C0000006EDACF01F0090EDB50020D0050F324F4
:103C1000E96E0150F420EA6E0E0EEECFDBFF0F0EC0
:103C2000EDCFDBFFD950050F006EDACF01F0090EA2
:103C3000DB50020D0050F324E96E0150F420EA6ECF
:103C40000C0EEECFDBFF0D0EEDCFDBFF1A0EDB6AA5
:103C5000D950150FE96EDACFEAFF400EEE5E000E86
:103C6000EE5A000EEE5A000EEE5A60D51A0EDBCF59
:103C700000F0016A026A036AD950150FE96EDACFC3
:103C8000EAFF0050EE5E0150EE5A0250EE5A035029
:103C9000EE5A1B0EDB500B0B0B0A01E136D1010A69
:103CA00001E1D9D0030A01E17FD0010A3FE0090A0E
:103CB00001E02BD1150EDB502E6E2E50010835E29F
:103CC000200EDB6A080EF36E1D0EF3CFDBFF010E34
:103CD000F36E1C0EF3CFDBFF1D0EDB5018E080A649
:103CE00009D0200EDBCFE7FF1C0EDB50E712200EC1
:103CF000E7CFDBFF808A809A1D0EDB061C0EDBCF30
:103D0000F3FFF39EF3461C0EF3CFDBFFE5D70C0E5B
:103D1000DBCFE9FFDB2A0D0EDBCFEAFF01E3DB2A75
:103D2000200EDBCFEFFF2E06C8D762D1150EDB5079
:103D30002E6E2E50010837E20E0EDBCFE9FFDB2A94
:103D40000F0EDBCFEAFF01E3DB2A1F0EEFCFDBFF15
:103D5000080EF36E1D0EF3CFDBFF010EF36E1C0E8B
:103D6000F3CFDBFF1D0EDB501CE01C0EDBCFE6FFAC
:103D70001F0EDB50E552E71402E0010E01D0000EE9
:103D8000E8B08186E8A08196808A809A1D0EDB06C5
:103D90001C0EDBCFF3FFF39EF3461C0EF3CFDBFFCD
:103DA000E1D72E06C6D724D1150EDB502E6E2E502D
:103DB000010850E20E0EDBCFE9FFDB2A0F0EDBCF4E
:103DC000EAFF01E3DB2A1F0EEFCFDBFF200EDB6AE9
:103DD000080EF36E1D0EF3CFDBFF010EF36E1C0E0B
:103DE000F3CFDBFF1D0EDB5027E080A609D0200EAD
:103DF000DBCFE7FF1C0EDB50E712200EE7CFDBFF27
:103E00001C0EDBCFE6FF1F0EDB50E552E71402E08D
:103E1000010E01D0000EE8B08186E8A08196808A6C
:103E2000809A1D0EDB061C0EDBCFF3FFF39EF346DC
:103E30001C0EF3CFDBFFD6D70C0EDBCFE9FFDB2A5E
:103E40000D0EDBCFEAFF01E3DB2A200EDBCFEFFF15
:103E50002E06ADD7CDD0150EDB502E6E2E5002089B
:103E600053E20E0EDBCFE9FFDB2A0F0EDBCFEAFFBA
:103E700001E3DB2A1E0EEFCFDBFF0E0EDBCFE9FFE7
:103E8000DB2A0F0EDBCFEAFF01E3DB2A1F0EEFCFA9
:103E9000DBFF080EF36E1D0EF3CFDBFF010EF36E9A
:103EA0001C0EF3CFDBFF1D0EDB502BE01C0EDBCF17
:103EB000E6FF1E0EDB50E552E71402E0010E01D0D2
:103EC000000EE8B08184E8A081941C0EDBCFE6FFF1
:103ED0001F0EDB50E552E71402E0010E01D0000E88
:103EE000E8B08186E8A08196808A809A1D0EDB0664
:103EF0001C0EDBCFF3FFF39EF3461C0EF3CFDBFF6C
:103F0000D2D7020E2E5EAAD773D0150EDB502E6EBE
:103F10002E5002086CE20E0EDBCFE9FFDB2A0F0EFB
:103F2000DBCFEAFF01E3DB2A1E0EEFCFDBFF0E0E35
:103F3000DBCFE9FFDB2A0F0EDBCFEAFF01E3DB2A51
:103F40001F0EEFCFDBFF200EDB6A080EF36E1D0E97
:103F5000F3CFDBFF010EF36E1C0EF3CFDBFF1D0E64
:103F6000DB5036E080A609D0200EDBCFE7FF1C0E29
:103F7000DB50E712200EE7CFDBFF1C0EDBCFE6FFA6
:103F80001E0EDB50E552E71402E0010E01D0000ED8
:103F9000E8B08184E8A081941C0EDBCFE6FF1F0E01
:103FA000DB50E552E71402E0010E01D0000EE8B04C
:103FB0008186E8A08196808A809A1D0EDB061C0E01
:103FC000DBCFF3FFF39EF3461C0EF3CFDBFFC7D727
:103FD0000C0EDBCFE9FFDB2A0D0EDBCFEAFF01E39E
:103FE000DB2A200EDBCFEFFF020E2E5E91D700D032
:103FF000070E006E016A026A036AD950100FE96E5B
:10400000DACFEAFFEE500016EE500116EE5002161F
:10401000EE5003161D0E00C0DBFF1D0EDB5005E148
:10402000080EF36E1D0EF3CFDBFF1B0EDBA20CD0D0
:104030000E0EDBCFE9FFDB2A0F0EDBCFEAFF01E339
:10404000DB2A1E0EEFCFDBFF1B0EDBA60AD00E0E07
:10405000DBCFE9FF0F0EDBCFEAFF1F0EEFCFDBFF59
:104060000BD01B0EDB50100B02E0FF0E01D0000E38
:10407000E76E1F0EE7CFDBFF200EDB6A010EF36E4B
:104080001C0EF3CFDBFF1D0EDB5039E080A609D0FC
:10409000200EDBCFE7FF1C0EDB50E712200EE7CF30
:1040A000DBFF1B0EDBA20FD01C0EDBCFE6FF1E0ECC
:1040B000DB50E552E71402E0010E01D0000EE8B03B
:1040C0008184E8A081941C0EDBCFE6FF1F0EDB503D
:1040D000E552E71402E0010E01D0000EE8B081863F
:1040E000E8A08196808A809A1D0EDB061C0EDBCF2D
:1040F000F3FFF39EF3461C0EF3CFDBFFC4D71B0E7A
:10410000DBA044D00C0EDBCFE9FF0D0EDBCFEAFFC6
:10411000200EDBCFEFFF040114BFFDD7D950050FF0
:10412000006EDACF01F0090EDB50020D0050F324CF
:10413000E96E0150F420EA6EEECF16F4EDCF17F4DD
:104140001B0EDBA216D0150EDBCF1CF0160EDBCF3C
:104150001DF0170EDBCF1EF0180EDBCF1FF0020E86
:10416000216E226A236A246A0EEC27F01CC015F423
:1041700003D0150EDBCF15F418EC07F0400E040148
:1041800014170401147D880E040114131B0EDB5058
:10419000800B14E01B0EDB50080B10E00401280E0E
:1041A000126F050E136F0401400E116F400E0401D3
:1041B00010170401107D880E04011013F50E000184
:1041C000625D03E20001626B03D0F50E0001625FE5
:1041D000E7D000016835000E681909E6D880550E51
:1041E0006555150E6655000E6755000E685531E28F
:1041F00065C000F066C001F067C002F068C003F05F
:10420000550E216E150E226E236A246A00C01CF022
:1042100001C01DF002C01EF003C01FF00EEC27F01D
:104220001CC000F01DC001F01EC002F01FC003F052
:10423000002A000E0122000E0222000E032200C0FE
:1042400060F001C061F000016051611101E0FBD735
:104250001FD065C02AF066C02BF067C02CF068C084
:104260002DF02A502B102C102D1012E00001BB1D38
:10427000E8B0808AE8A0809A0001BB51E8B0808A4B
:10428000E8A0809A2A06000E2B5A2C5A2D5AE9D7FC
:10429000050EDF6E85D0100E65C0DBFF110E66C007
:1042A000DBFF120E67C0DBFF130E68C0DBFF100ED2
:1042B000DBCF00F0110EDBCF01F0120EDBCF02F0EE
:1042C000130EDBCF03F0005001100210031001E1C8
:1042D00067D0100EDBCF1CF0110EDBCF1DF0120EDD
:1042E000DBCF1EF0130EDBCF1FF0020E1D26000EDB
:1042F0001E22000E1F221C06000E1D5A000E1E5A02
:10430000000E1F5A216A020E226E236A246A0EECE6
:1043100027F0150E1CC0DBFF160E1DC0DBFF170EAD
:104320001EC0DBFF180E1FC0DBFF150EDBCF1DF01C
:10433000160EDBCF1EF0170EDBCF1FF0180EDBCFF3
:1043400020F02034000E201809E6D880000E1D54FD
:10435000000E1E54000E1F54000E20541BE20401D8
:1043600010BFFDD70401400E116F18EC07F0400E8E
:10437000040110170401107D880E04011013D95098
:10438000150FE96EDACFEAFFEE06000EEE5AEE5A8E
:10439000EE5ACBD7DF6A04D0FF0002D0DF6A00D02C
:1043A00000010001A551020B10E1DF500EE00401F5
:1043B00014BFFDD7DFCFE6FF640EE66E000EE66E9B
:1043C0002AEC26F0E552E552E552210EE15C02E2CC
:1043D000E16AE552E16EE552E7CFD9FF1200D9CF8D
:1043E000E6FFE1CFD9FF040EE126FC0EDB50010A07
:1043F00076E0010A01E093D00C0E1E6E1F6AFD0EDE
:10440000DBCF23F0FE0EDBCF24F042EC27F0020ED0
:104410001CC0DBFF030E1DC0DBFF020EDBCF00F074
:10442000030EDBCF01F00A0E005C000E015801E222
:1044300055D0020EDBCF00F0030EDBCF01F0F60EFD
:10444000005C000E015815E20A0E006E016A020EB1
:10445000DBCF1EF0030EDBCF1FF000C023F001C046
:1044600024F02FEC28F01E50E66E61EC28F0E552A7
:1044700035D0020EDBCF00F0030EDBCF01F09C0E37
:10448000005C000E015815E2640E006E016A020E17
:10449000DBCF1EF0030EDBCF1FF000C023F001C006
:1044A00024F02FEC28F01E50E66E53EC28F0E55275
:1044B00015D0E80E006E030E016E020EDBCF1EF06B
:1044C000030EDBCF1FF000C023F001C024F02FEC5F
:1044D00028F01E50E66EF0EC07F0E55220D0DE6AC0
:1044E000DD6ADECF00F0DDCF01F0FD0EDBCF02F0A4
:1044F000FE0EDBCF03F00250005C035001580EE2C9
:10450000E66AE80EE66E030EE66E69DFE552E552F6
:10451000E552DF2A010E01E3DB2AE3D700D0040EC7
:10452000E15C02E2E16AE552E16EE552E7CFD9FFD4
:104530001200D8CFE4FFE0CFE4FFE46EDACFE4FF6F
:10454000E2CFDAFFE6529E9200016007000E615B47
:10455000635102E10A0E636F6307050E0001BE5D41
:1045600002E28C960AD00001635107E16251000813
:1045700003E28C76620701D08C86E552E5CFDAFF44
:10458000E550E5CFE0FFE5CFD8FF1000D9CFE6FF3B
:10459000E1CFD9FFFD0EDB1C0001A415006EFD0E5E
:1045A000DBCFE6FFFE0EDB50E552E7140010A46FF0
:1045B0008198828E81880F0E8314006EF00EA415F0
:1045C0000010E76EFE0EE7CFDBFFDB50836E829EAE
:1045D0000F0E8314006EA439F00BF00B0010E76E81
:1045E000FE0EE7CFDBFFDB50836E828EE552E7CF16
:1045F000D9FF1200807A807A1200D9CFE6FFE1CF8E
:10460000D9FF030EE126809A8184DF6A050EDF5C04
:1046100003E2F0DFDF2AFAD78194ECDF8184EADF5E
:104620008184E8DF8194E6DF8194E4DF8186DF6ABC
:104630000A0EDF5C03E2DEDFDF2AFAD78184DADFED
:104640008184D8DF8184D6DF8194D4DF8194D2DF66
:10465000D1DFD0DFFB0EDBCFE9FFFC0EDBCFEAFFC3
:10466000EF6A8050080B01E0010E006E8150080BCC
:1046700001E0010E005C08E0FB0EDBCFE9FFFC0E61
:10468000DBCFEAFF010EEF6EDF6A020EDF5C31E284
:1046900081768150080B01E0010EE76E020EE7CF34
:1046A000DBFFFB0EDBCFE9FFFC0EDBCFEAFFEF50B9
:1046B00009E08150080B01E0010EE81CE76E020ED4
:1046C000E7CFDBFF020EDB92DB94DB96DB98DB9A15
:1046D000DB9CDB9E8FDF8EDF8050080B01E0010E3C
:1046E000006E020EDB50005C02E0000E2BD0DF2AD1
:1046F000CCD78050080B01E0010EE76E010EE7CF2A
:10470000DBFF8176807A0000000000008050080BFB
:1047100001E0010E006E010EDB50005CF3E0FD0EC7
:10472000DBCFE9FFFE0EDBCFEAFFEF6A80AA08D0FD
:10473000FD0EDBCFE9FFFE0EDBCFEAFF010EEF6ED1
:10474000010E00D0006E030EE15C02E2E16AE55268
:10475000E16E0050E552E7CFD9FF12008490E66A7F
:10476000B00EE66E040EE66E3ADEE552E552E55214
:104770008480E66AB00EE66E040EE66E30DEE55228
:10478000E552E5521200D9CFE6FFE1CFD9FFD9506B
:10479000FD0FE96EFF0EDA20EA6EEE50ED100DE02F
:1047A0008490060EE66E61EC28F0E5528480AE0E31
:1047B000E66E61EC28F0E5520CD08490860EE66E31
:1047C00061EC28F0E55284802D0EE66E61EC28F055
:1047D000E552E552E7CFD9FF1200D9CFE6FFE1CF8E
:1047E000D9FFE652DF6A080EDF5C23E2010EE76EB6
:1047F000FD0EDBCF00F0FE0EDBCF01F0E750001620
:10480000016A00C0E6FF01C0E6FFBDDFE552E552E8
:10481000DF2AD950FD0FE96EFF0EDA20EA6E010E95
:104820000F0B06E0EC52D890ED32EF32E806FAE1D9
:10483000DAD7E552E552E7CFD9FF1200D9CFE6FF2C
:10484000E1CFD9FFE652DF6A090EDF5C23E2010EF9
:10485000E76EFD0EDBCF00F0FE0EDBCF01F0E75080
:104860000016016A00C0E6FF01C0E6FF8CDFE552DA
:10487000E552DF2AD950FD0FE96EFF0EDA20EA6E0D
:10488000010E0F0B06E0EC52D890ED32EF32E80645
:10489000FAE1DAD7E552E552E7CFD9FF1200D9CFD6
:1048A000E6FFE1CFD9FF0C0EE126FD0EDBCF00F0D5
:1048B000FE0EDBCF01F0D890015004E6010E005C43
:1048C000000E015802E2000E55D1FD0EDBCF00F0C4
:1048D000FE0EDBCF01F0013404E200500408080EA4
:1048E000015402E2000E46D1D950FD0FE96EFF0ED1
:1048F000DA20EA6E010EEE1801E1ED5002E1010E40
:1049000001D0000E006E016A00BE016800C0DEFF2B
:1049100001C0DDFF010EF36E020EF3CFDBFF030ECD
:10492000DB6A040EDB6A050EDB6AFC0EDB5054E129
:10493000FD0EDBCF00F0FE0EDBCF01F0013404E210
:1049400000500208040E01541CE2020EDB6A030E42
:10495000DB6A040EDB6A050EDB6AD950FD0FE96ED7
:10496000FF0EDA20EA6E040E236E246AEECF1EF0EC
:10497000EDCF1FF0E8EC26F01EC0EEFF1FC0EDFFEC
:104980002BD0FD0EDBCF00F0FE0EDBCF01F00134AB
:1049900004E200500108020E01541EE2020EDB6A1E
:1049A000030EDB6A010EF36E040EF3CFDBFF050E80
:1049B000DB6AD950FD0FE96EFF0EDA20EA6E020EB7
:1049C000236E246AEECF1EF0EDCF1FF0E8EC26F048
:1049D0001EC0EEFF1FC0EDFFFD0EDBCF02F0FE0E8E
:1049E000DBCF03F0033404E202500108020E03544B
:1049F00005E2010E006E020E016E06D0FD0EDBCF49
:104A000000F0FE0EDBCF01F0FD0E00C0DBFFFE0E5E
:104A100001C0DBFFD950FD0FE96EFF0EDA20EA6E10
:104A2000020EEE5E000EED5A010EF36E060EF3CF8F
:104A3000DBFF070EDB6A010EF36E080EF3CFDBFF20
:104A4000090EDB6A080EDBCF0AF0090EDBCF0BF094
:104A5000050ED8900A360B36E804FBE1060EDBCFD4
:104A60000CF0070EDBCF0DF0040ED8900C360D368F
:104A7000E804FBE10A500C10086E0B500D10096E93
:104A8000040EDBCF0EF0050EDBCF0FF0030ED89037
:104A90000E360F36E804FBE108500E10066E095082
:104AA0000F10076E020EDBCF10F0030EDBCF11F0FC
:104AB000D89010361136D890103611360650101096
:104AC000046E07501110056EDECF12F0DDCF13F02B
:104AD000D8901236133604501210026E055013107F
:104AE000036EFC0EDB5002E0010E01D0000E146ECE
:104AF000156A14BE156802501410006E035015108C
:104B0000016E0A0E00C0DBFF0B0E01C0DBFF8480CC
:104B100025DE010EE66EE66A60DEE552E552FD0E28
:104B2000DBCFE6FFFE0EDBCFE6FF88DEE552E55287
:104B3000E66AF00EE66EE66A52DCE552E552E552B0
:104B40000DDE020EE66EE66A48DEE552E5520A0E1A
:104B5000DBCFE6FF0B0EDBCFE6FF70DEE552E55262
:104B6000E66AF00EE66EE66A3ADCE552E552E55298
:104B7000010E00D0006E0C0EE15C02E2E16AE5522B
:0C4B8000E16E0050E552E7CFD9FF1200B3
:044B8C000001C26BF7
:104B9000C36B1E0E716E726E0401400E096F280EFB
:104BA0000A6F040E0B6F880E086F0401A80E0E6FBB
:104BB000040E0F6F400E0C6F0401116F280E126F60
:104BC000050E136F880E106F0401A80E166F050EE8
:104BD000176F400E146F1200D9CFE6FFE1CFD9FF57
:104BE000E652FC0EDB50400805E2400EF36EFC0E70
:104BF000F3CFDBFFDF6AFC0EDB50DF5C19E2DF5036
:104C0000E76EFD0EDBCFE9FFFE0EDBCFEAFFE750DC
:104C1000E926000EEA22EF50E66EDF50EA6AA80F9E
:104C2000E96E040EEA22E552E750EF6EDF2AE3D781
:104C30000401A80E0E6F040E0F6FFC0EDBCF0DF4F7
:104C4000400E0C170C7D880E0C13E552E552E7CF91
:104C5000D9FF1200D9CFE6FFE1CFD9FFE652FC0E13
:104C6000DB50400805E2400EF36EFC0EF3CFDBFF95
:104C7000DF6AFC0EDB50DF5C19E2DF50E76EFD0EF1
:104C8000DBCFE9FFFE0EDBCFEAFFE750E926000E9F
:104C9000EA22EF50E66EDF50EA6AA80FE96E050ED1
:104CA000EA22E552E750EF6EDF2AE3D70401A80EAF
:104CB000166F050E176FFC0EDBCF15F4400E1417A0
:104CC000147D880E1413E552E552E7CFD9FF120088
:104CD000D9CFE6FFE1CFD9FF0001C26B040108BFC5
:104CE00030D0FC0EDBCF00F00951D880005403E235
:104CF000FC0E09C4DBFF0001C26BFC0EDB50C25D81
:104D000019E2C251EA6A280FE96E040EEA22EF5056
:104D1000E66EC251E76EFD0EDBCFE9FFFE0EDBCF84
:104D2000EAFFE750E926000EEA22E552E750EF6E6F
:104D3000C22BE3D70401400E096F0817087D880EC7
:104D400008130001C25100D0E552E7CFD9FF12008D
:104D5000D9CFE6FFE1CFD9FF0001C36B040110BF3B
:104D600030D0FC0EDBCF00F01151D880005403E2AC
:104D7000FC0E11C4DBFF0001C36BFC0EDB50C35DF6
:104D800019E2C351EA6A280FE96E050EEA22EF50D4
:104D9000E66EC351E76EFD0EDBCFE9FFFE0EDBCF03
:104DA000EAFFE750E926000EEA22E552E750EF6EEF
:104DB000C32BE3D70401400E116F1017107D880E2E
:104DC00010130001C35100D0E552E7CFD9FF120004
:104DD000166A24AEF1EF26F0236C241EE86A242222
:104DE000161E1FAEF9EF26F01E6C1F1EE86A1F226A
:104DF000161E2FEC28F01FBE09EF27F016AE000C90
:104E00001E6C1F1EE86A1F221A6C1B1EE86A1B22FA
:104E1000000C16BE00EF27F01788FF0C166AE86A30
:104E200024AE1BEF27F0216C221E231E241E2222FB
:104E300023222422161E1FAE26EF27F01C6C1D1EF7
:104E40001E1E1F1E1D221E221F22161EB3EC07F05F
:104E50001FBE3DEF27F016AE000C1C6C1D1E1E1E63
:104E60001F1EE86A1D221E221F22186C191E1A1E00
:104E70001B1E19221A221B22000C16BE2DEF27F032
:104E80001788FF0C1EC028F01E502302F4CF1DF01F
:104E9000F3CF1CF01F502402F4CF1FF0F3CF1EF00D
:104EA0002302F3501D26F4501E22E86A1F222850C8
:104EB0002402F3501D26F4501E22E86A1F22000C23
:104EC0001201000200000008D8048CFF0401010256
:104ED000000109022E0001010080320904000004D3
:104EE0000000000007050102400020070581024084
:104EF0000020070502024000200705820240002032
:104F0000040309044A035800200045006E006700AE
:104F100069006E0065006500720069006E00670040
:104F2000200053006F00660074007700610072007B
:104F300065002000530079007300740065006D0067
:104F40007300200043006F00720070002E003603D3
:104F50005800530055005300420020002D0020004F
:104F600058004500530053002000550053004200F4
:104F7000200049006E007400650072006600610048
:0E4F800063006500D24ED24E004F044F4E4FDC
:024F8E002A0EE9
:104F9000F66E080EF76E000EF86E00010900F5506F
:104FA000AB6F0900F550AC6F03E1AB6701D03DD0AA
:104FB0000900F550A66F0900F550A76F0900F550DC
:104FC000A86F09000900F550E96E0900F550EA6E76
:104FD000090009000900F550A96F0900F550AA6FF2
:104FE00009000900F6CFADF0F7CFAEF0F8CFAFF083
:104FF000A6C0F6FFA7C0F7FFA8C0F8FF0001A9539D
:1050000002E1AA5307E00900F550EE6EA907F8E2A5
:10501000AA07F9D7ADC0F6FFAEC0F7FFAFC0F8FFE3
:0C5020000001AB07000EAC5BBFD7120014
:04502C0005D810D8BB
:10503000B1EC08F0FCD712000F0EC112140E6F6E07
:105040000001BE6B0001BF6B0001C06B80EF08F078
:0E505000F9EC06F06FBE02D018EC07F012006B
:02505E001B6ACB
:105060001A6A100EE76ED8901E361F361A361B3697
:1050700023501A5C24501B5805E323501A5E245019
:0A5080001B5A1E2AE72EF0D712007B
:06508A0013EE00F023EE1E
:1050900000F0F86A179CC7EC27F077EC28F016ECC4
:0650A00028F0FBD712000E
:0A50A600FF0EE350346E1B0E00D025
:1050B00001D0200EE76EE72EFED7342EFAD700D0AF
:0250C0001200DC
:0E50C200FF0EE350E84E1200000000D000D0B8
:0850D00000D0E82EFAD712000F
:0850D80000EE00F00F0EEE6A7D
:0650E000EA62FDD7120098
:0850E6005630312E30340A006F
:0250EE001200AE
:0650F000E6500000000183
:020000040030CA
:0100000025DA
:010001000EF0
:010002002ECF
:010003001EDE
:010005008179
:010006008178
:010008000FE8
:01000900C036
:01000A000FE6
:01000B00A054
:01000C000FE4
:01000D0040B2
:00000001FF
