:020000040000FA
:0608000049EF1BF012009D
:020808001200DC
:060818009DEF15F0120037
:06082A000100F836000099
:08083000B80000000600000002
:0808380004011851600BE842B5
:10084000E842E842E842E842000901E055D0195187
:10085000070A51E00B0A4FE0070A40E0010A2CE0CA
:100860000B0A28E0020A26E0030A22E0080A12E046
:10087000010A0EE00F0A0AE0030A01E03CD0000181
:10088000010EB16F0001040EBE6F36D036D834D0E1
:1008900090D832D00001010EB16F0001C00EB26FCE
:1008A000000EB36F0001BF930001010EB66F24D09C
:1008B000A8D822D0F4D820D00001010EB16F0401D5
:1008C0001C510001B26FB36BC10EB227000EB323EF
:1008D0000001BF930001010EB66F0ED00001010EA2
:1008E000B16F04011C51EA6AC10FE96E000EEA22E1
:1008F0001AC4EFFF01D000D01200800E0401185D71
:1009000057E11B51030A34E0010A10E0030A01E039
:100910004DD00001010EB16F0001C80EB26F340E50
:10092000B36F120E0001B66FB76B40D00001010E1D
:10093000B16F04011A51F66EF76AD890F636F736A1
:100940008C0EF626350EF7220900F5CFB2F00A001C
:10095000F5CFB3F0020E0001F76AB225F66EB3517F
:10096000F7220900F5CFB6F00A00F5CFB7F01ED098
:100970000001010EB16F04011A51F66EF76AD890AA
:10098000F636F736900EF626350EF7220900F5CF2B
:10099000B2F00A00F5CFB3F0B2C0F6FFB3C0F7FF74
:1009A0000800F5500001B66FB76B00D00001BF839F
:1009B00012000001010EB16F0F0EE66E710EE66EB1
:1009C0000F0EE66E9EEC07F0E552E552E552010E81
:1009D000E66EC10EE66E000EE66E9EEC07F0E55286
:1009E000E552E5521AC4C0F004011A5104E10001B5
:1009F000050EBE6F05D00001060EBE6FCAEC18F0E2
:100A000012000401206B216B040118511F0B020A14
:100A100014E0030A0EE0010A01E033D00001010EE8
:100A2000B16F040120810001BFA102D00401208325
:100A300028D00001010EB16F24D00001010EB16F6A
:100A400004011C510F0B080DF350016A000F006EDA
:100A5000040E01221C51800B01E0010E040DF35025
:100A600000010024B46F000E0120B56FB4C0E9FF8F
:100A7000B5C0EAFFEF50040B03E00401010E206F44
:100A800000D00001B1050AE10001200EB26F040E92
:100A9000B36F0001BF930001020EB66F1200040194
:100AA0001A0510E118511F0B00090CE10001010E9D
:100AB000B16F030E0401195D03E10001BF8102D093
:100AC0000001BF9104011A513AE118511F0B0208AD
:100AD00036E11C510F0B000932E00001010EB16F2D
:100AE00004011C510F0B080DF350016A000F006E3A
:100AF000040E01221C51800B01E0010E040DF35085
:100B000000010024B46F000E0120B56F030E040134
:100B1000195D07E1840EB4C0E9FFB5C0EAFFEF6ECE
:100B20000ED01CAF06D0B4C0E9FFB5C0EAFFEF6A33
:100B300006D0880EB4C0E9FFB5C0EAFFEF6E120020
:100B40006C5002E0000E01D0010E00090BE0040120
:100B500000513C0BE842E8420D0802E10CD801D0FC
:100B60001CD808D06C5002E0000E01D0010E040920
:100B700001E023D81200D9CFE6FFE1CFD9FFE6523A
:100B80000001B06BB16BB66BB76B1CEC04F0DDD839
:100B9000E552E552E7CFD9FF1200020E0001B05D29
:100BA0000AE196D8040100BD03D0C80E006F02D040
:100BB000880E006F01D00FD91200040E0001BE5D37
:100BC0000AE11AC46EFF6E50000803E2050EBE6F04
:100BD00002D0030EBE6F0001B0050AE10BD804017C
:100BE00004BD03D0C80E046F02D0880E046F01D07C
:100BF000F2D81200D9CFE6FFE1CFD9FF020EE126ED
:100C00000001080EB65D000EB75905E2B6C0DEFF62
:100C1000B7C0DDFF03D0080EDE6EDD6A0401049369
:100C20000491010EDB500413DFCF05F4000EDB50FE
:100C30000001B65F010EDB50B75B200EB46F040EEF
:100C4000B56F0001BFA31ED0D9CFE9FFDACFEAFF0D
:100C5000EE50ED1016E0B2C0F6FFB3C0F7FF08008B
:100C6000F550B4C0E9FFB5C0EAFFEF6E0001B42B48
:100C7000000EB523B22BB323DF06010E01E2DB0623
:100C8000E3D71CD0D9CFE9FFDACFEAFFEE50ED1061
:100C900015E0B2C0E9FFB3C0EAFFEF50B4C0E9FF0E
:100CA000B5C0EAFFEF6E0001B42B000EB523B22BE6
:100CB000B323DF06010E01E2DB06E4D7020EE15C9E
:100CC00002E2E16AE552E16EE552E7CFD9FF120098
:100CD000D9CFE6FFE1CFD9FF020EE126030E0401D2
:100CE0000015E76E010EE7CFDBFF01C4DFFFDE502A
:100CF0000001B627DD50B723200EB26F040EB36F8C
:100D0000D9CFE9FFDACFEAFFEE50ED1014E0B2C020
:100D1000E9FFB3C0EAFFEF50B4C0E9FFB5C0EAFF96
:100D2000EF6EB42B000EB523B22BB323DF06010EFA
:100D300001E2DB06E5D7020EE15C02E2E16AE55280
:100D4000E16EE552E7CFD9FF12000001B1510CE18D
:100D50000401080E016F180E026F040E036F840E5B
:100D6000006F0401046F35D0040118AF22D00001D8
:100D7000B65104011E5D0001B75104011F5904E280
:100D80001EC4B6F01FC4B7F035DF0001010EB06F0E
:100D90000401080E016F180E026F040E036F800E1F
:100DA000006F0401200E066F040E076FC80E046F5B
:100DB00010D00001020EB06F0401056BC80E046F65
:100DC0000401080E016F200E026F040E036FC80E9F
:100DD000006F6D9812000001B06B0401080E016FE6
:100DE000180E026F040E036F880E006F0401046B6F
:020DF0001200EF
:0E0DF2006DA60FD802D06DB613D80001BE0555
:100E000008E16DBA06D0686A696A69806988020E6D
:100E1000BE6F12006D6A696A6D860001010EBE6FB9
:100E200012006D6A696A0001BE6B120011EF07F0D3
:100E30000001BE5101E13AD06850040B04E0695052
:100E4000040B01E038D86DB231D06850010B04E0DA
:100E50006950010B01E050D86850100B04E0695054
:100E6000100B01E024D86850400B04E06950400B9F
:100E700001E037D86850200B04E06950200B01E0F6
:100E800032D86850020B04E06950020B01E032D8FE
:100E9000030E0001BE5D01E209D06850080B06E0B8
:100EA0006950080B03E0A0EC05F068961200698415
:100EB00068986D8212006D92699468941200000126
:100EC000BFA10ED0F8DF6D840001080EC46F070EBD
:100ED000C56FC407000EC55BC451C511FAE16D941E
:100EE0001200689C120070A003D0EBEC06F070902A
:100EF000689A1200689212006A6A686A9F0E6B6EA6
:100F00007B0E696E6E6A0F0EE66E710EE66E0F0E48
:100F1000E66E14D8E552E552E552160E706E68A6DC
:100F200002D06896FCD76D98EBEC06F00001BF91FB
:100F30000001C06B0001030EBE6F1200D9CFE6FFA7
:100F4000E1CFD9FFFD0EDBCFE9FFFE0EDBCFEAFFDD
:100F5000FC0EDB5004E0EE6AFC0EDB06F9D7E5522E
:060F6000E7CFD9FF1200EB
:0A0F66001B6A1A6A196A186A200E45
:100F7000E76ED8901C361D361E361F3618361936C9
:100F80001A361B362150185C2250195823501A5813
:100F900024501B5809E32150185E2250195A23503F
:0E0FA0001A5A24501B5A1C2AE72EE4D71200BE
:020FAE00FB0E38
:100FB000E3CFF6FFFC0EE3CFF7FFFD0EE3CFF8FF24
:100FC000FE0EE3CFE9FFFF0EE3CFEAFFE9CFF3FF29
:100FD000EACFF4FF0900F5CFEFFFEE66FBD7120072
:100FE000FF0EE350346E480E01D04C0EE76EE72E34
:100FF000FED7E76AE72EFED7342EF7D7000012009F
:10100000008040C020A060E0109050D030B070F060
:10101000088848C828A868E8189858D838B878F8D0
:10102000048444C424A464E4149454D434B474F400
:101030000C8C4CCC2CAC6CEC1C9C5CDC3CBC7CFC70
:10104000028242C222A262E2129252D232B272F200
:101050000A8A4ACA2AAA6AEA1A9A5ADA3ABA7AFA70
:10106000068646C626A666E6169656D636B676F6A0
:101070000E8E4ECE2EAE6EEE1E9E5EDE3EBE7EFE10
:10108000018141C121A161E1119151D131B171F1D0
:10109000098949C929A969E9199959D939B979F940
:1010A000058545C525A565E5159555D535B575F570
:1010B0000D8D4DCD2DAD6DED1D9D5DDD3DBD7DFDE0
:1010C000038343C323A363E3139353D333B373F370
:1010D0000B8B4BCB2BAB6BEB1B9B5BDB3BBB7BFBE0
:1010E000078747C727A767E7179757D737B777F710
:1010F0000F8F4FCF2FAF6FEF1F9F5FDF3FBF7FFF80
:101100008C9695960001626B7F0ECA6ECB68D08E6E
:101110009E6A9D829F92F28CF28E949E93929598F5
:10112000959A959C959E93989290828E96908480A5
:1011300093988198A46B9290808093929598949EB6
:101140009380929A9394939692869D96C69AC79E00
:10115000C78CC698C690C692C694C696A591A5930C
:101160001200060E0001BE5D03E36D50020B01E0AC
:1011700001D001D81200D9CFE6FFE1CFD9FF1C0E74
:10118000E1260001BA5125E1BC0EE66E000EE66EC6
:10119000BB0EE66E000EE66E01EC16F0E552E5526F
:1011A000E552E5520001BA6F0001BB51E8B0808AF8
:1011B000E8A0809A0001BC5102E0FF0E01D0000EB1
:1011C000336E0001BB5102E0000E01D0010E0001A0
:1011D000BD6FDF6A400EE66E640EE66E000EE66ED0
:1011E0006CEC19F0E552E552E552000902E135EFE9
:1011F0000FF018EC07F000010A0E626F0001645155
:10120000FF0A02E121EF0FF0B60A02E117EF0FF03B
:10121000010A02E196EF0EF00F0A02E13EEF0EF036
:10122000010A01E1B9D0020A01E1B6D0010A01E1E7
:10123000B3D0060A01E194D0010A01E17CD00E0A84
:1012400069E0070A61E0010A51E00B0A26E0010AA1
:101250000BE0710A02E023EF0FF00001320E626F23
:10126000010EDF6E25EF0FF0B8C000F0B9C001F03D
:10127000026A00C0E6FF01C0E6FF02C0E6FF650E9D
:10128000E66E000EE66ED7EC07F0036E050EE15E2B
:101290000350400EDF6E25EF0FF0BC0EE66E000E21
:1012A000E66EBB0EE66E000EE66E01EC16F0E55241
:1012B000E552E552E5520001BA6F0001BB51E8B0BA
:1012C000808AE8A0809A0001BC5102E0FF0E01D0A4
:1012D000000E336E0001BB5102E0000E01D0010E82
:1012E0000001BD6F010EDF6E25EF0FF065C0E6FF58
:1012F00066C0E6FFCAEC15F0E552E5520001666BE8
:10130000030EDF6E25EF0FF0A4C066F0030EDF6E54
:1013100025EF0FF067C0E6FF65C0E6FF66C0E6FF99
:1013200053EC17F0E552E552E5520001686F050EE7
:10133000DF6E25EF0FF0000100016551010B02E0A7
:10134000838801D08398000100016551020B02E0FF
:10135000828E01D0829E81828192DF6A25EF0FF01A
:10136000000165958150010B01E0658500010001D8
:101370006551010B02E0838801D0839800010001D0
:101380006551020B02E0828E01D0829E81828192A1
:10139000020EDF6E25EF0FF0000162690E0E65C0D0
:1013A000DBFF0F0E66C0DBFF100E67C0DBFF110E08
:1013B00068C0DBFF0E0EDBCF00F00F0EDBCF01F0BD
:1013C000100EDBCF02F0110EDBCF03F00050011046
:1013D0000210031002E125EF0FF00E0EDBCF1CF020
:1013E0000F0EDBCF1DF0100EDBCF1EF0110EDBCF8A
:1013F0001FF0070E1C26000E1D22000E1E22000EDE
:101400001F22080E216E226A236A246A12EC1AF047
:10141000130E1CC0DBFF140E1DC0DBFF150E1EC01B
:10142000DBFF160E1FC0DBFF819283980001BD51C8
:101430001DE00E0EDBCF1DF00F0EDBCF1EF0100EE9
:10144000DBCF1FF0110EDBCF20F02034000E201870
:1014500009E6D880080E1D54000E1E54000E1F54BD
:10146000000E205403E29382C68A9392090EDB6A2F
:10147000D950010FE96EDACFEAFF280EEE6E040EA6
:10148000ED6ED950030FE96EDACFEAFF680EEE6E0B
:10149000040EED6ED950050FE96EDACFEAFFA80E03
:1014A000EE6E040EED6ED950070FE96EDACFEAFF4B
:1014B000E80EEE6E040EED6E130EDBCF1DF0140E73
:1014C000DBCF1EF0150EDBCF1FF0160EDBCF20F0AA
:1014D0002034000E201809E6D880400E1D54000E5E
:1014E0001E54000E1F54000E205401E3FAD10001D7
:1014F000625102E100016269440E0001645D04E092
:10150000460E0001645D4DE1040108BFFDD7D950CE
:10151000010F006EDACF01F0090EDB50020D005012
:10152000F324E96E0150F420EA6E0A0EEECFDBFFE1
:101530000B0EEDCFDBFF090EDB70D950050F006EEF
:10154000DACF01F0090EDB50020D0050F324E96EF2
:101550000150F420EA6E0C0EEECFDBFF0D0EEDCF46
:10156000DBFFD950010F006EDACF01F0090EDB501E
:10157000020D0050F324E96E0150F420EA6EEECF24
:101580000AF4EDCF0BF40401400E096F18EC07F0DC
:10159000400E040108170401087D880E0401081399
:1015A00016D0090EDB70D950050F006EDACF01F0AE
:1015B000090EDB50020D0050F324E96E0150F420B7
:1015C000EA6E0C0EEECFDBFF0D0EEDCFDBFF400E13
:1015D0002E6EE9CF2FF0EACF30F0E1CF31F0E2CF3D
:1015E00032F0460E0001645D5BE1000EF66E100EF7
:1015F000F76EF86A0A0EDBCFE9FF0B0EDBCFEAFFCE
:101600000001BD5117E0EECFF6FF0800F5CFC9FF8E
:10161000000000002E4E08D0EECFF6FF0800C9CF24
:10162000F6FFF5CFC9FFF6D7000000000000C9CFD4
:10163000F6FF35D0EECFF6FF0800F536828ED8A043
:10164000829E81828192F536828ED8A0829E81828E
:101650008192F536828ED8A0829E81828192F53663
:10166000828ED8A0829E81828192F536828ED8A009
:10167000829E81828192F536828ED8A0829E81825E
:101680008192F536828ED8A0829E81828192F53633
:10169000828ED8A0829E818281922E2ECBD7E1D0DD
:1016A000440E0001645D01E07ED0000EF66E100E67
:1016B000F76EF86A0A0EDBCFE9FF0B0EDBCFEAFF0D
:1016C0000C0EDBCFE1FF0D0EDBCFE2FF0001BD51C1
:1016D00017E0EECFF6FF0800F5CFC9FF00000000CD
:1016E00000000000000000000000000000000000FA
:1016F000C9CFF6FF0800F5CFE6FF2E2EEAD752D06D
:10170000EECFF6FF0800D89081B0D880F536828EF3
:10171000D8A0829E81828192D89081B0D880F536FF
:10172000828ED8A0829E81828192D89081B0D8800A
:10173000F536828ED8A0829E81828192D89081B027
:10174000D880F536828ED8A0829E81828192D890F0
:1017500081B0D880F536828ED8A0829E8182819217
:10176000D89081B0D880F536828ED8A0829E8182B2
:101770008192D89081B0D880F536828ED8A0829E92
:1017800081828192D89081B0D880F536828ED8A09F
:10179000829E81828192F5CFF6FF0800F5CFE6FFA9
:1017A0002E2EAED75ED0000EF66E100EF76EF86AD3
:1017B0000C0EDBCFE9FF0D0EDBCFEAFF0001BD51C0
:1017C00019E0000EC96E00000000000000000000DB
:1017D0000000000000002E4E07D0C9CFF6FFC96EF2
:1017E0000800F5CFEEFFF5D7C9CFF6FF0800F5CF1B
:1017F000EEFF37D0D89081B0D880F53681828192C3
:10180000D89081B0D880F53681828192D89081B00D
:10181000D880F53681828192D89081B0D880F53613
:1018200081828192D89081B0D880F5368182819270
:10183000D89081B0D880F53681828192D89081B0DD
:10184000D880F53681828192D89081B0D880F536E3
:1018500081828192F5CFF6FF0800F5CFEEFF2E2EA4
:10186000C9D731C0E1FF32C0E2FF2FC0E9FF30C06D
:10187000EAFF440E0001645D04E0450E0001645D72
:1018800022E104010CBFFDD7D950050F006EDACF5D
:1018900001F0090EDB50020D0050F324E96E0150F7
:1018A000F420EA6EEECF0EF4EDCF0FF40401400EFB
:1018B0000D6F400E04010C1704010C7D880E04010D
:1018C0000C1318EC07F0D950130FE96EDACFEAFFCA
:1018D000400EEE5E000EEE5A000EEE5A000EEE5A6C
:1018E000EBD5130EDB50E76E170EE7CFDBFF440E90
:1018F0000001645D04E0460E0001645D05E1040141
:1019000008BFFDD718EC07F0D950010F006EDACFF1
:1019100001F0090EDB50020D0050F324E96E015076
:10192000F420EA6E0A0EEECFDBFF0B0EEDCFDBFFED
:10193000090EDB70D950050F006EDACF01F0090EE9
:10194000DB50020D0050F324E96E0150F420EA6EE2
:101950000C0EEECFDBFF0D0EEDCFDBFF170EDB50D5
:101960002E6E2E50010801E3ADD00001BD5135E0CF
:10197000440E0001645D04E0460E0001645D13E165
:101980000A0EDBCFE9FFDB2A0B0EDBCFEAFF01E318
:10199000DB2AEF50F76A000FF66E100EF7220800F0
:1019A000F550C96E01D0C96AC750E8A0FDD7C9502B
:1019B000F76A000FF66E100EF7220800F550E66E7B
:1019C0000C0EDBCFE9FFDB2A0D0EDBCFEAFF01E3D4
:1019D000DB2AE552E750EF6E73D0440E0001645DE0
:1019E00004E0460E0001645D14E10A0EDBCFE9FF5E
:1019F000DB2A0B0EDBCFEAFF01E3DB2AEF50F76AAD
:101A0000000FF66E100EF72208001A0EF5CFDBFF5E
:101A100002D01A0EDB6A1B0EDB6A080EF36E190E7B
:101A2000F3CFDBFF800EF36E180EF3CFDBFF190E42
:101A3000DB50000827E281A009D01B0EDBCFE7FFB7
:101A4000180EDB50E7121B0EE7CFDBFF180EDBCFC3
:101A5000E6FF1A0EDB50E552E71402E0010E01D05A
:101A6000000EE8B0828EE8A0829E81828192190EDB
:101A7000DB06180EDBCFF3FFF390F342180EF3CF23
:101A8000DBFFD5D7440E0001645D04E0450E000184
:101A9000645D16E11B0EDB50F76A000FF66E100E48
:101AA000F7220800F550E66E0C0EDBCFE9FFDB2ACB
:101AB0000D0EDBCFEAFF01E3DB2AE552E750EF6EC4
:101AC0002E064FD70001BD5102E08192C69A070E43
:101AD000006E016A026A036AD9500E0FE96EDACF0E
:101AE000EAFFEE500016EE500116EE500216EE50D0
:101AF0000316190E00C0DBFF190EDB5005E1080EBE
:101B0000F36E190EF3CFDBFF440E0001645D04E0B9
:101B1000460E0001645D11E10A0EDBCFE9FF0B0EFA
:101B2000DBCFEAFFEF50F76A000FF66E100EF722D8
:101B300008001A0EF5CFDBFF02D01A0EDB6A1B0E6F
:101B4000DB6A800EF36E180EF3CFDBFF190EDB504D
:101B500000082BE2190EDB0401E1838881A009D083
:101B60001B0EDBCFE7FF180EDB50E7121B0EE7CF93
:101B7000DBFF180EDBCFE6FF1A0EDB50E552E71451
:101B800002E0010E01D0000EE8B0828EE8A0829E35
:101B900081828192190EDB06180EDBCFF3FFF390E2
:101BA000F342180EF3CFDBFFD1D7440E0001645D82
:101BB00004E0450E0001645D13E11B0EDB50F76A83
:101BC000000FF66E100EF7220800F550E66E0C0EB0
:101BD000DBCFE9FF0D0EDBCFEAFFE552E750EF6EFA
:101BE000440E0001645D04E0450E0001645D22E1E5
:101BF00004010CBFFDD7D950050F006EDACF01F0FC
:101C0000090EDB50020D0050F324E96E0150F42060
:101C1000EA6EEECF0EF4EDCF0FF4170EDBCF0DF41E
:101C2000400E04010C1704010C7D880E04010C13F6
:101C300018EC07F0440E0001645D04E0460E00015C
:101C4000645D10E10401280E0A6F040E0B6F04019D
:101C5000400E096F400E040108170401087D880E2C
:101C600004010813DF6AF50E0001625D03E2000162
:101C7000626B03D0F50E0001625FE7D000016835AA
:101C8000000E681909E6D880550E6555150E665583
:101C9000000E6755000E685531E265C000F066C061
:101CA00001F067C002F068C003F0550E216E150EFA
:101CB000226E236A246A00C01CF001C01DF002C01D
:101CC0001EF003C01FF012EC1AF01CC000F01DC083
:101CD00001F01EC002F01FC003F0002A000E012216
:101CE000000E0222000E032200C060F001C061F06D
:101CF00000016051611101E0FBD715D065C02AF0E9
:101D000066C02BF067C02CF068C02DF02A502B1055
:101D10002C102D1008E0817281722A06000E2B5AB9
:101D20002C5A2D5AF3D7050EDF6E8FD00E0E65C0DC
:101D3000DBFF0F0E66C0DBFF100E67C0DBFF110E6E
:101D400068C0DBFF0E0EDBCF00F00F0EDBCF01F023
:101D5000100EDBCF02F0110EDBCF03F000500110AC
:101D60000210031001E171D00E0EDBCF1CF00F0E3C
:101D7000DBCF1DF0100EDBCF1EF0110EDBCF1FF0FE
:101D8000020E1D26000E1E22000E1F221C06000E33
:101D90001D5A000E1E5A000E1F5A216A020E226E94
:101DA000236A246A12EC1AF0130E1CC0DBFF140E17
:101DB0001DC0DBFF150E1EC0DBFF160E1FC0DBFFB4
:101DC000130EDBCF1DF0140EDBCF1EF0150EDBCF94
:101DD0001FF0160EDBCF20F02034000E201809E68D
:101DE000D880000E1D54000E1E54000E1F54000E0D
:101DF00020541BE2040108BFFDD70401400E096F07
:101E000018EC07F0400E040108170401087D880E45
:101E100004010813D950130FE96EDACFEAFFEE067A
:101E2000000EEE5AEE5AEE5ACBD7DF6A0ED0000102
:101E300000016551010B02E0808001D08090DF6AD3
:101E400004D0FF0002D0DF6A00D0DF500EE00401B2
:101E50000CBF0BD0DFCFE6FF640EE66E000EE66E21
:101E6000F0EC18F0E552E552E552400EE66E640ED5
:101E7000E66E000EE66EACEC19F0E552E552E55266
:101E8000000902E1E9EF14F018EC07F000010A0E76
:101E9000626F00016451FF0A02E1D0EF14F0B70A4B
:101EA00002E14FEF14F00F0A02E1EDEF13F0010A27
:101EB00001E1C4D0020A01E1C1D0010A01E1BED0B2
:101EC000060A01E191D0010A70E00E0A5DE00D0AF8
:101ED00032E0010A17E00E0A11E0030A0BE07C0A67
:101EE00002E0D2EF14F00001320E626F010EDF6EDD
:101EF000D4EF14F00001A593D4EF14F00001A583F2
:101F0000D4EF14F0B8C000F0B9C001F0026A00C00C
:101F1000E6FF01C0E6FF02C0E6FF650EE66E000EBA
:101F2000E66ED7EC07F0036E050EE15E0350400E3F
:101F3000DF6ED4EF14F0BC0EE66E000EE66EBB0E44
:101F4000E66E000EE66E01EC16F0E552E552E55243
:101F5000E5520001BA6F0001BB51E8B0808AE8A0E9
:101F6000809A0001BC5102E0FF0E01D0000E336EDA
:101F70000001BB5102E0000E01D0010E0001BD6F57
:101F8000010EDF6ED4EF14F067C0E6FF65C0E6FF18
:101F900066C0E6FF53EC17F0E552E552E55200014A
:101FA000686F050EDF6ED4EF14F00001000165517B
:101FB000010B02E0818401D0819400010001655190
:101FC000020B02E0818601D081960001BB1DE8B0C2
:101FD000808AE8A0809A0001BB51E8B0808AE8A01E
:101FE000809ADF6AD4EF14F08050080B01E0010EF4
:101FF0000001BC1900016595E8B06585000100018C
:102000006551010B02E0818401D08194000100013F
:102010006551020B02E0818601D081960001BB1D53
:10202000E8B0808AE8A0809A0001BB51E8B0808ABD
:10203000E8A0809A020EDF6ED4EF14F0000162690E
:102040000E0E65C0DBFF0F0E66C0DBFF100E67C013
:10205000DBFF110E68C0DBFF0E0EDBCF00F00F0EB2
:10206000DBCF01F0100EDBCF02F0110EDBCF03F05F
:10207000005001100210031002E1D4EF14F00E0E14
:10208000DBCF1CF00F0EDBCF1DF0100EDBCF1EF0F0
:10209000110EDBCF1FF0070E1C26000E1D22000EB6
:1020A0001E22000E1F22080E216E226A236A246A55
:1020B00012EC1AF0130E1CC0DBFF140E1DC0DBFF68
:1020C000150E1EC0DBFF160E1FC0DBFF0001BB514B
:1020D000E8B0808AE8A0809A8194090EDB6AD95022
:1020E000010FE96EDACFEAFF280EEE6E050EED6EF7
:1020F000D950030FE96EDACFEAFF680EEE6E050ED7
:10210000ED6ED950050FE96EDACFEAFFA80EEE6E3C
:10211000050EED6ED950070FE96EDACFEAFFE80E33
:10212000EE6E050EED6E130EDBCF1DF0140EDBCF41
:102130001EF0150EDBCF1FF0160EDBCF20F0203483
:10214000000E201809E6D880400E1D54000E1E54C3
:10215000000E1F54000E205401E3ADD10001625166
:1021600002E100016269440E0001645D04E0460E74
:102170000001645D4DE1040110BFFDD7D950010F8E
:10218000006EDACF01F0090EDB50020D0050F3248F
:10219000E96E0150F420EA6E0A0EEECFDBFF0B0E63
:1021A000EDCFDBFF090EDB70D950050F006EDACFE3
:1021B00001F0090EDB50020D0050F324E96E0150CE
:1021C000F420EA6E0C0EEECFDBFF0D0EEDCFDBFF41
:1021D000D950010F006EDACF01F0090EDB50020D6D
:1021E0000050F324E96E0150F420EA6EEECF12F4B1
:1021F000EDCF13F40401400E116F18EC07F0400E00
:10220000040110170401107D880E0401101316D06C
:10221000090EDB70D950050F006EDACF01F0090E00
:10222000DB50020D0050F324E96E0150F420EA6EF9
:102230000C0EEECFDBFF0D0EEDCFDBFF400E2E6E52
:10224000E9CF2FF0EACF30F0E1CF31F0E2CF32F03A
:10225000460E0001645D41E1000EF66E100EF76E51
:10226000F86A0A0EDBCFE9FF0B0EDBCFEAFFEECFF9
:10227000F6FF0800F5368186D8A08196807A807AAC
:10228000F5368186D8A08196807A807AF536818667
:10229000D8A08196807A807AF5368186D8A08196FA
:1022A000807A807AF5368186D8A08196807A807A85
:1022B000F5368186D8A08196807A807AF536818637
:1022C000D8A08196807A807AF5368186D8A08196CA
:1022D000807A807A2E2ECBD7AED0440E0001645D7A
:1022E00066E1000EF66E100EF76EF86A0A0EDBCF8E
:1022F000E9FF0B0EDBCFEAFF0C0EDBCFE1FF0D0E8B
:10230000DBCFE2FFEECFF6FF0800D89080B6D88092
:10231000F5368186D8A08196807A807AD89080B66A
:10232000D880F5368186D8A08196807A807AD89038
:1023300080B6D880F5368186D8A08196807A807A5A
:10234000D89080B6D880F5368186D8A08196807ADC
:10235000807AD89080B6D880F5368186D8A08196CC
:10236000807A807AD89080B6D880F5368186D8A0D9
:102370008196807A807AD89080B6D880F53681862A
:10238000D8A08196807A807AD89080B6D880F536A9
:102390008186D8A08196807A807A3350F51AF5CF5D
:1023A000F6FF0800F5CFE6FF2E2EACD744D0000E86
:1023B000F66E100EF76EF86A0C0EDBCFE9FF0D0E0D
:1023C000DBCFEAFFD89080B6D880F536807A807A65
:1023D000D89080B6D880F536807A807AD89080B64A
:1023E000D880F536807A807AD89080B6D880F53655
:1023F000807A807AD89080B6D880F536807A807AD4
:10240000D89080B6D880F536807A807AD89080B619
:10241000D880F536807A807AD89080B6D880F53624
:10242000807A807A3350F51AF5CFF6FF0800F5CFA1
:10243000EEFF2E2EC7D731C0E1FF32C0E2FF2FC022
:10244000E9FF30C0EAFF440E0001645D04E0450E80
:102450000001645D22E1040114BFFDD7D950050FCE
:10246000006EDACF01F0090EDB50020D0050F324AC
:10247000E96E0150F420EA6EEECF16F4EDCF17F4BA
:102480000401400E156F400E040114170401147D61
:10249000880E0401141318EC07F0D950130FE96EDD
:1024A000DACFEAFF400EEE5E000EEE5A000EEE5A54
:1024B000000EEE5A38D6130EDB50E76E170EE7CF3C
:1024C000DBFF440E0001645D04E0460E0001645D24
:1024D00005E1040110BFFDD718EC07F0D950010F3A
:1024E000006EDACF01F0090EDB50020D0050F3242C
:1024F000E96E0150F420EA6E0A0EEECFDBFF0B0E00
:10250000EDCFDBFF090EDB70D950050F006EDACF7F
:1025100001F0090EDB50020D0050F324E96E01506A
:10252000F420EA6E0C0EEECFDBFF0D0EEDCFDBFFDD
:10253000170EDB502E6E2E50010801E376D0440EAC
:102540000001645D04E0460E0001645D14E10A0EC2
:10255000DBCFE9FFDB2A0B0EDBCFEAFF01E3DB2A4F
:10256000EF50F76A000FF66E100EF72208001A0EF1
:10257000F5CFDBFF02D01A0EDB6A1B0EDB6A080EFA
:10258000F36E190EF3CFDBFF800EF36E180EF3CF50
:10259000DBFF190EDB50000827E280A609D01B0ED6
:1025A000DBCFE7FF180EDB50E7121B0EE7CFDBFF98
:1025B000180EDBCFE6FF1A0EDB50E552E71402E0FF
:1025C000010E01D0000EE8B08186E8A08196807AE5
:1025D000807A190EDB06180EDBCFF3FFF390F3427F
:1025E000180EF3CFDBFFD5D7440E0001645D04E085
:1025F000450E0001645D17E11B0EDB503318F76ACE
:10260000000FF66E100EF7220800F550E66E0C0E65
:10261000DBCFE9FFDB2A0D0EDBCFEAFF01E3DB2A8C
:10262000E552E750EF6E2E0686D7070E006E016A60
:10263000026A036AD9500E0FE96EDACFEAFFEE5054
:102640000016EE500116EE500216EE500316190E4B
:1026500000C0DBFF190EDB5005E1080EF36E190E0A
:10266000F3CFDBFF440E0001645D04E0460E000181
:10267000645D11E10A0EDBCFE9FF0B0EDBCFEAFF51
:10268000EF50F76A000FF66E100EF72208001A0ED0
:10269000F5CFDBFF02D01A0EDB6A1B0EDB6A800E61
:1026A000F36E180EF3CFDBFF190EDB5000082BE2A0
:1026B000190EDB0401E1818480A609D01B0EDBCF5B
:1026C000E7FF180EDB50E7121B0EE7CFDBFF180EFB
:1026D000DBCFE6FF1A0EDB50E552E71402E0010EF5
:1026E00001D0000EE8B08186E8A08196807A807AD9
:1026F000190EDB06180EDBCFF3FFF390F342180E32
:10270000F3CFDBFFD1D7440E0001645D04E0450E3A
:102710000001645D14E11B0EDB503318F76A000FF3
:10272000F66E100EF7220800F550E66E0C0EDBCFA9
:10273000E9FF0D0EDBCFEAFFE552E750EF6E440EE6
:102740000001645D04E0450E0001645D22E10401C6
:1027500014BFFDD7D950050F006EDACF01F0090E76
:10276000DB50020D0050F324E96E0150F420EA6EB4
:10277000EECF16F4EDCF17F4170EDBCF15F4400EA5
:10278000040114170401147D880E0401141318ECBD
:1027900007F0440E0001645D04E0460E0001645D34
:1027A00010E10401280E126F050E136F0401400E94
:1027B000116F400E040110170401107D880E0401F2
:1027C0001013DF6AF50E0001625D03E20001626B27
:1027D00003D0F50E0001625FE7D000016835000EFE
:1027E000681909E6D880550E6555150E6655000E18
:1027F0006755000E685531E265C000F066C001F013
:1028000067C002F068C003F0550E216E150E226EEF
:10281000236A246A00C01CF001C01DF002C01EF033
:1028200003C01FF012EC1AF01CC000F01DC001F034
:102830001EC002F01FC003F0002A000E0122000E8D
:102840000222000E032200C060F001C061F000010E
:102850006051611101E0FBD71FD065C02AF066C04E
:102860002BF067C02CF068C02DF02A502B102C10D4
:102870002D1012E00001BB1DE8B0808AE8A0809A0C
:102880000001BB51E8B0808AE8A0809A2A06000EB9
:102890002B5A2C5A2D5AE9D7050EDF6E85D00E0E15
:1028A00065C0DBFF0F0E66C0DBFF100E67C0DBFFED
:1028B000110E68C0DBFF0E0EDBCF00F00F0EDBCF7A
:1028C00001F0100EDBCF02F0110EDBCF03F0005051
:1028D00001100210031001E167D00E0EDBCF1CF0D7
:1028E0000F0EDBCF1DF0100EDBCF1EF0110EDBCF75
:1028F0001FF0020E1D26000E1E22000E1F221C06B7
:10290000000E1D5A000E1E5A000E1F5A216A020E9A
:10291000226E236A246A12EC1AF0130E1CC0DBFF2D
:10292000140E1DC0DBFF150E1EC0DBFF160E1FC0F0
:10293000DBFF130EDBCF1DF0140EDBCF1EF0150EE8
:10294000DBCF1FF0160EDBCF20F02034000E201856
:1029500009E6D880000E1D54000E1E54000E1F54B0
:10296000000E20541BE2040110BFFDD70401400EED
:10297000116F18EC07F0400E040110170401107DD0
:10298000880E04011013D950130FE96EDACFEAFF55
:10299000EE06000EEE5AEE5AEE5ACBD7DF6A04D09E
:1029A000FF0002D0DF6A00D000010001A551020B38
:1029B00010E1DF500EE0040114BF0BD0DFCFE6FFC3
:1029C000640EE66E000EE66E2EEC19F0E552E5524E
:1029D000E5521C0EE15C02E2E16AE552E16EE5526D
:1029E000E7CFD9FF1200D9CFE6FFE1CFD9FF040E20
:1029F000E126FC0EDB50010A76E0010A01E093D0EB
:102A00000C0E1E6E1F6AFD0EDBCF23F0FE0EDBCF19
:102A100024F046EC1AF0020E1CC0DBFF030E1DC0B2
:102A2000DBFF020EDBCF00F0030EDBCF01F00A0E5E
:102A3000005C000E015801E255D0020EDBCF00F021
:102A4000030EDBCF01F0F60E005C000E015815E21C
:102A50000A0E006E016A020EDBCF1EF0030EDBCF02
:102A60001FF000C023F001C024F033EC1BF01E5017
:102A7000E66E65EC1BF0E55235D0020EDBCF00F0C0
:102A8000030EDBCF01F09C0E005C000E015815E236
:102A9000640E006E016A020EDBCF1EF0030EDBCF68
:102AA0001FF000C023F001C024F033EC1BF01E50D7
:102AB000E66E57EC1BF0E55215D0E80E006E030EE3
:102AC000016E020EDBCF1EF0030EDBCF1FF000C045
:102AD00023F001C024F033EC1BF01E50E66EF0EC46
:102AE00007F0E55220D0DE6ADD6ADECF00F0DDCFF0
:102AF00001F0FD0EDBCF02F0FE0EDBCF03F0025043
:102B0000005C035001580EE2E66AE80EE66E030E22
:102B1000E66E69DFE552E552E552DF2A010E01E378
:102B2000DB2AE3D700D0040EE15C02E2E16AE55261
:102B3000E16EE552E7CFD9FF1200D8CFE4FFE0CF36
:102B4000E4FFE46EDACFE4FFE2CFDAFFE6529E92D2
:102B500000016007000E615B635102E10A0E636FC2
:102B60006307050E0001BE5D02E28C960AD00001EB
:102B7000635107E16251000803E28C76620701D0DD
:102B80008C86E552E5CFDAFFE550E5CFE0FFE5CFF3
:102B9000D8FF1000D9CFE6FFE1CFD9FFFD0EDB1C37
:102BA0000001A415006EFD0EDBCFE6FFFE0EDB502C
:102BB000E552E7140010A46F8198828E81880F0E71
:102BC0008314006EF00EA4150010E76EFE0EE7CF22
:102BD000DBFFDB50836E829E0F0E8314006EA439E0
:102BE000F00BF00B0010E76EFE0EE7CFDBFFDB50C3
:102BF000836E828EE552E7CFD9FF1200807A807A09
:102C00001200D9CFE6FFE1CFD9FF030EE126809A6B
:102C10008184DF6A050EDF5C03E2F0DFDF2AFAD78A
:102C20008194ECDF8184EADF8184E8DF8194E6DF50
:102C30008194E4DF8186DF6A0A0EDF5C03E2DEDF77
:102C4000DF2AFAD78184DADF8184D8DF8184D6DF76
:102C50008194D4DF8194D2DFD1DFD0DFFB0EDBCFD4
:102C6000E9FFFC0EDBCFEAFFEF6A8050080B01E0C2
:102C7000010E006E8150080B01E0010E005C08E0BF
:102C8000FB0EDBCFE9FFFC0EDBCFEAFF010EEF6EA0
:102C9000DF6A020EDF5C31E281768150080B01E0D1
:102CA000010EE76E020EE7CFDBFFFB0EDBCFE9FF85
:102CB000FC0EDBCFEAFFEF5009E08150080B01E08A
:102CC000010EE81CE76E020EE7CFDBFF020EDB927F
:102CD000DB94DB96DB98DB9ADB9CDB9E8FDF8EDF61
:102CE0008050080B01E0010E006E020EDB50005C0C
:102CF00002E0000E2BD0DF2ACCD78050080B01E079
:102D0000010EE76E010EE7CFDBFF8176807A0000CF
:102D1000000000008050080B01E0010E006E010E63
:102D2000DB50005CF3E0FD0EDBCFE9FFFE0EDBCFF6
:102D3000EAFFEF6A80AA08D0FD0EDBCFE9FFFE0EA6
:102D4000DBCFEAFF010EEF6E010E00D0006E030E26
:102D5000E15C02E2E16AE552E16E0050E552E7CF44
:102D6000D9FF12008490E66AB00EE66E040EE66E9D
:102D70003ADEE552E552E5528480E66AB00EE66E30
:102D8000040EE66E30DEE552E552E5521200D9CF70
:102D9000E6FFE1CFD9FFD950FD0FE96EFF0EDA2033
:102DA000EA6EEE50ED100DE08490060EE66E65ECD6
:102DB0001BF0E5528480AE0EE66E65EC1BF0E5522A
:102DC0000CD08490860EE66E65EC1BF0E552848094
:102DD0002D0EE66E65EC1BF0E552E552E7CFD9FF0C
:102DE0001200D9CFE6FFE1CFD9FFE652DF6A080E25
:102DF000DF5C23E2010EE76EFD0EDBCF00F0FE0E7E
:102E0000DBCF01F0E7500016016A00C0E6FF01C009
:102E1000E6FFBDDFE552E552DF2AD950FD0FE96E2E
:102E2000FF0EDA20EA6E010E0F0B06E0EC52D8908E
:102E3000ED32EF32E806FAE1DAD7E552E552E7CFB4
:102E4000D9FF1200D9CFE6FFE1CFD9FFE652DF6A02
:102E5000090EDF5C23E2010EE76EFD0EDBCF00F012
:102E6000FE0EDBCF01F0E7500016016A00C0E6FF5E
:102E700001C0E6FF8CDFE552E552DF2AD950FD0F95
:102E8000E96EFF0EDA20EA6E010E0F0B06E0EC523F
:102E9000D890ED32EF32E806FAE1DAD7E552E552A2
:102EA000E7CFD9FF1200D9CFE6FFE1CFD9FF0C0E53
:102EB000E126FD0EDBCF00F0FE0EDBCF01F0D89057
:102EC000015004E6010E005C000E015802E2000E03
:102ED00055D1FD0EDBCF00F0FE0EDBCF01F001344B
:102EE00004E200500408080E015402E2000E46D12C
:102EF000D950FD0FE96EFF0EDA20EA6E010EEE18D2
:102F000001E1ED5002E1010E01D0000E006E016AF8
:102F100000BE016800C0DEFF01C0DDFF010EF36EE0
:102F2000020EF3CFDBFF030EDB6A040EDB6A050E35
:102F3000DB6AFC0EDB5054E1FD0EDBCF00F0FE0E31
:102F4000DBCF01F0013404E200500208040E01540A
:102F50001CE2020EDB6A030EDB6A040EDB6A050E5E
:102F6000DB6AD950FD0FE96EFF0EDA20EA6E040E1F
:102F7000236E246AEECF1EF0EDCF1FF0ECEC19F0BB
:102F80001EC0EEFF1FC0EDFF2BD0FD0EDBCF00F00B
:102F9000FE0EDBCF01F0013404E200500108020E06
:102FA00001541EE2020EDB6A030EDB6A010EF36EB1
:102FB000040EF3CFDBFF050EDB6AD950FD0FE96E7F
:102FC000FF0EDA20EA6E020E236E246AEECF1EF0A8
:102FD000EDCF1FF0ECEC19F01EC0EEFF1FC0EDFFAF
:102FE000FD0EDBCF02F0FE0EDBCF03F0033404E274
:102FF00002500108020E035405E2010E006E020E9B
:10300000016E06D0FD0EDBCF00F0FE0EDBCF01F02F
:10301000FD0E00C0DBFFFE0E01C0DBFFD950FD0F2F
:10302000E96EFF0EDA20EA6E020EEE5E000EED5A39
:10303000010EF36E060EF3CFDBFF070EDB6A010E07
:10304000F36E080EF3CFDBFF090EDB6A080EDBCF51
:103050000AF0090EDBCF0BF0050ED8900A360B36BE
:10306000E804FBE1060EDBCF0CF0070EDBCF0DF022
:10307000040ED8900C360D36E804FBE10A500C1013
:10308000086E0B500D10096E040EDBCF0EF0050E0E
:10309000DBCF0FF0030ED8900E360F36E804FBE1BD
:1030A00008500E10066E09500F10076E020EDBCF8F
:1030B00010F0030EDBCF11F0D89010361136D890F7
:1030C0001036113606501010046E07501110056EA0
:1030D000DECF12F0DDCF13F0D89012361336045045
:1030E0001210026E05501310036EFC0EDB5002E04E
:1030F000010E01D0000E146E156A14BE1568025040
:103100001410006E03501510016E0A0E00C0DBFF94
:103110000B0E01C0DBFF848025DE010EE66EE66A41
:1031200060DEE552E552FD0EDBCFE6FFFE0EDBCFA3
:10313000E6FF88DEE552E552E66AF00EE66EE66AE4
:1031400052DCE552E552E5520DDE020EE66EE66A0D
:1031500048DEE552E5520A0EDBCFE6FF0B0EDBCF71
:10316000E6FF70DEE552E552E66AF00EE66EE66ACC
:103170003ADCE552E552E552010E00D0006E0C0E2D
:10318000E15C02E2E16AE552E16E0050E552E7CF10
:04319000D9FF120051
:0C3194000001C26BC36B1E0E716E726EE8
:1031A0000401400E096F280E0A6F040E0B6F880E83
:1031B000086F0401A80E0E6F040E0F6F400E0C6F07
:1031C0000401116F280E126F050E136F880E106F19
:1031D0000401A80E166F050E176F400E146F120033
:1031E000D9CFE6FFE1CFD9FFE652FC0EDB50400815
:1031F00005E2400EF36EFC0EF3CFDBFFDF6AFC0E40
:10320000DB50DF5C19E2DF50E76EFD0EDBCFE9FF3C
:10321000FE0EDBCFEAFFE750E926000EEA22EF5070
:10322000E66EDF50EA6AA80FE96E040EEA22E55264
:10323000E750EF6EDF2AE3D70401A80E0E6F040EED
:103240000F6FFC0EDBCF0DF4400E0C170C7D880EBB
:103250000C13E552E552E7CFD9FF1200D9CFE6FFB4
:10326000E1CFD9FFE652FC0EDB50400805E2400EEC
:10327000F36EFC0EF3CFDBFFDF6AFC0EDB50DF5C8E
:1032800019E2DF50E76EFD0EDBCFE9FFFE0EDBCF6C
:10329000EAFFE750E926000EEA22EF50E66EDF5023
:1032A000EA6AA80FE96E050EEA22E552E750EF6ED2
:1032B000DF2AE3D70401A80E166F050E176FFC0E68
:1032C000DBCF15F4400E1417147D880E1413E5524D
:1032D000E552E7CFD9FF1200D9CFE6FFE1CFD9FF02
:1032E0000001C26B040108BF30D0FC0EDBCF00F040
:1032F0000951D880005403E2FC0E09C4DBFF000131
:10330000C26BFC0EDB50C25D19E2C251EA6A280FA3
:10331000E96E040EEA22EF50E66EC251E76EFD0E32
:10332000DBCFE9FFFE0EDBCFEAFFE750E926000E18
:10333000EA22E552E750EF6EC22BE3D70401400EBC
:10334000096F0817087D880E08130001C25100D0CC
:10335000E552E7CFD9FF1200D9CFE6FFE1CFD9FF81
:103360000001C36B040110BF30D0FC0EDBCF00F0B6
:103370001151D880005403E2FC0E11C4DBFF0001A0
:10338000C36BFC0EDB50C35D19E2C351EA6A280F20
:10339000E96E050EEA22EF50E66EC351E76EFD0EB0
:1033A000DBCFE9FFFE0EDBCFEAFFE750E926000E98
:1033B000EA22E552E750EF6EC32BE3D70401400E3B
:1033C000116F1017107D880E10130001C35100D02B
:0833D000E552E7CFD9FF12001E
:0833D800166A24AEF5EF19F0AE
:1033E000236C241EE86A2422161E1FAEFDEF19F07E
:1033F0001E6C1F1EE86A1F22161E33EC1BF01FBE38
:103400000DEF1AF016AE000C1E6C1F1EE86A1F228C
:103410001A6C1B1EE86A1B22000C16BE04EF1AF081
:103420001788FF0C166AE86A24AE1FEF1AF0216CA9
:10343000221E231E241E222223222422161E1FAEF9
:103440002AEF1AF01C6C1D1E1E1E1F1E1D221E229E
:103450001F22161EB3EC07F01FBE41EF1AF016AE86
:10346000000C1C6C1D1E1E1E1F1EE86A1D221E2243
:103470001F22186C191E1A1E1B1E19221A221B222B
:10348000000C16BE31EF1AF01788FF0C1EC028F092
:103490001E502302F4CF1DF0F3CF1CF01F50240266
:1034A000F4CF1FF0F3CF1EF02302F3501D26F4508B
:1034B0001E22E86A1F2228502402F3501D26F450D1
:0834C0001E22E86A1F22000C25
:0834C8001201000200000008DF
:1034D000D8048CFF03010102000109022E00010142
:1034E000008032090400000400000000070501020A
:1034F000400020070581024000200705020240002D
:103500002007058202400020040309044A035800F2
:10351000200045006E00670069006E0065006500D0
:10352000720069006E006700200053006F006600A3
:10353000740077006100720065002000530079007C
:103540007300740065006D007300200043006F007D
:10355000720070002E0036035800530055005300CF
:10356000420020002D002000580045005300530069
:103570002000550053004200200049006E007400F6
:10358000650072006600610063006500DA34DA34B9
:0635900008350C3556352C
:0A3596002A0EF66E080EF76E000E06
:1035A000F86E00010900F550AB6F0900F550AC6FE3
:1035B00003E1AB6701D03DD00900F550A66F0900CB
:1035C000F550A76F0900F550A86F09000900F550E4
:1035D000E96E0900F550EA6E090009000900F5508E
:1035E000A96F0900F550AA6F09000900F6CFADF0E8
:1035F000F7CFAEF0F8CFAFF0A6C0F6FFA7C0F7FF49
:10360000A8C0F8FF0001A95302E1AA5307E009008E
:10361000F550EE6EA907F8E2AA07F9D7ADC0F6FF9C
:10362000AEC0F7FFAFC0F8FF0001AB07000EAC5B08
:04363000BFD71200EE
:0C36340005D810D8B1EC08F0FCD712004B
:103640000F0EC112140E6F6E0001BE6B0001BF6B36
:103650000001C06B80EF08F0F9EC06F06FBE02D0FD
:0636600018EC07F0120057
:0A3666001B6A1A6A100EE76ED89076
:103670001E361F361A361B3623501A5C24501B5830
:1036800005E323501A5E24501B5A1E2AE72EF0D75A
:02369000120026
:0E36920013EE00F023EE00F0F86A179CCBEC6C
:0E36A0001AF07BEC1BF01AEC1BF0FBD71200AB
:0236AE00FF0E0D
:1036B000E350346E1B0E00D001D0200EE76EE72ED3
:0A36C000FED7342EFAD700D0120016
:0636CA00FF0EE350E84E84
:1036D0001200000000D000D000D0E82EFAD712006F
:0E36E00000EE00F00F0EEE6AEA62FDD7120057
:0236EE00563054
:0636F000312E30310A000A
:0236F6001200C0
:0636F800EE3600000001A7
:020000040030CA
:0100000025DA
:010001000EF0
:010002002ECF
:010003001EDE
:010005008179
:010006008178
:010008000FE8
:01000900C036
:01000A000FE6
:01000B00A054
:01000C000FE4
:01000D0040B2
:00000001FF
