:020000040000FA
:06000000EAEF12F012000D
:06080000EAEF12F0120005
:020808001200DC
:0608180081EF0CF012005C
:06082A0001003026000071
:08083000DB02000003000000E0
:080838008B9A949A0201A26B55
:100840007F0ECA6ECB68D08E9E6A9D829F92F28C7C
:10085000F28E94988288939C939A9398948E9D9606
:10086000C69AC79EC78CC698C690C692C694C696AE
:10087000C4911200060E0201D75D03E36450020B1F
:1008800001E001D001D81200D9CFE6FFE1CFD9FFB6
:10089000210EE126DF6A200EE66EA40EE66E020E41
:1008A000E66EB0EC11F0E552E552E552000902E1C6
:1008B000CDEF0BF051EC0EF002010A0EA26F020117
:1008C000A451FF0A02E1B9EF0BF0B60A02E1AFEF63
:1008D0000BF00E0A02E157EF0BF0080A26E00F0AB0
:1008E0000BE0710A02E0BBEF0BF00201320EA26FC7
:1008F000010EDF6EBDEF0BF0DBC21DF0DCC21EF09F
:100900001F6A1DC0E6FF1EC0E6FF1FC0E6FFA50E62
:10091000E66E020EE66E92EC12F0206E050EE15EBF
:100920002050200EDF6EBDEF0BF0DF6A0201A269DE
:10093000100EA5C2DBFF110EA6C2DBFF120EA7C26E
:10094000DBFF130EA8C2DBFF100EDBCF1DF0110E74
:10095000DBCF1EF0120EDBCF1FF0130EDBCF20F02B
:100960001D501E101F10201002E1BDEF0BF01B0EDA
:10097000A9C2DBFFD950010FE96EDACFEAFF200EE2
:10098000EE6E020EED6ED950030FE96EDACFEAFF7C
:10099000400EEE6E020EED6ED950050FE96EDACF05
:1009A000EAFF600EEE6E020EED6ED950070FE96E93
:1009B000DACFEAFF800EEE6E020EED6E010EF36EE0
:1009C000090EF3CFDBFF060EF36E1A0EF3CFDBFF3B
:1009D0001A0EDB501E6AA40F1D6E020E1E220E0E92
:1009E0001DC0DBFF0F0E1EC0DBFFD950050F1D6EB3
:1009F000DACF1EF0090EDB50020D1D50F324E96E14
:100A00001E50F420EA6E0C0EEECFDBFF0D0EEDCF84
:100A1000DBFF100EDBCF06F0110EDBCF07F0120E5E
:100A2000DBCF08F0130EDBCF09F0070E0626000E11
:100A30000722000E0822000E0922080E0B6E0C6A17
:100A40000D6A0E6AF1EC11F0150E06C0DBFF160EF2
:100A500007C0DBFF170E08C0DBFF180E09C0DBFF65
:100A60001B0EDBA20DD0D950150FE96EDACFEAFFCD
:100A7000D890EF36010EEB36020EEB36030EEB3656
:100A80001A0EDBCF1DF01E6A1F6A206AD950150F9F
:100A9000E96EDACFEAFF1D50EE261E50EE221F50FF
:100AA000EE222050EE22819C1B0EDBB20BD01B0EDF
:100AB000DB50040B02E0010E01D0000EE8B0818A89
:100AC000E8A0819A1B0EDBB60BD01B0EDB50100B7F
:100AD00002E0010E01D0000EE8B08188E8A0819804
:100AE0001B0EDB9E150EDBCF07F0160EDBCF08F0DA
:100AF000170EDBCF09F0180EDBCF0AF00A34000E18
:100B00000A1809E6D880200E0754000E0854000E7B
:100B10000954000E0A5401E317D31B0EDB8E0201A9
:100B2000A25102E10201A2691B0EDB500B0B0B0A62
:100B300001E1D8D1010A01E177D1030A01E119D11C
:100B4000010A01E192D0090A01E0CCD10201DD5194
:100B50004CE01B0EDB50100B02E0FF0E01D0000E2C
:100B6000E76E1F0EE7CFDBFF938CC68A939C1A0EAD
:100B7000DBCFE6FF200EE552D880E754186EE9CFB0
:100B800019F0EACF1AF0E1CF1BF0E2CF1CF0000E13
:100B9000F66E1F0EF76EF86A0C0EDBCFE9FF0D0E36
:100BA000DBCFEAFF000EC96E00000000000000006D
:100BB0000000000000000000184E07D0C9CFF6FF6B
:100BC000C96E0800F5CFEEFFF5D7C9CFF6FF0800D4
:100BD000F5CFEEFF819CC69A19C0E9FF1AC0EAFF63
:100BE0001BC0E1FF1CC0E2FF3FD01A0EDBCFE6FFC7
:100BF000200EE552D880E754186E185035E0200ECC
:100C0000DB6A080EF36E1D0EF3CFDBFF010EF36EF1
:100C10001C0EF3CFDBFF1D0EDB5018E082AE09D0B7
:100C2000200EDBCFE7FF1C0EDB50E712200EE7CFD4
:100C3000DBFF818C819C1D0EDB061C0EDBCFF3FFDE
:100C4000F39EF3461C0EF3CFDBFFE5D70C0EDBCF94
:100C5000E9FFDB2A0D0EDBCFEAFF01E3DB2A200EE2
:100C6000DBCFEFFF1806C9D7B4D10201DD513FE059
:100C7000938CC68A939C1A0EDBCFE6FF200EE552BA
:100C8000D880E754186EE9CF19F0EACF1AF0E1CF17
:100C90001BF0E2CF1CF0000EF66E1F0EF76EF86A26
:100CA0000E0EDBCFE9FF0F0EDBCFEAFFEECFF6FF34
:100CB0000800F5CFC9FF00000000184E08D0EECFA5
:100CC000F6FF0800C9CFF6FFF5CFC9FFF6D7000041
:100CD00000000000C9CFF6FF819CC69A19C0E9FF49
:100CE0001AC0EAFF1BC0E1FF1CC0E2FF41D01A0E90
:100CF000DBCFE6FF200EE552D880E754186E18507F
:100D000037E00E0EDBCFE9FFDB2A0F0EDBCFEAFF69
:100D100001E3DB2A1F0EEFCFDBFF080EF36E1D0E83
:100D2000F3CFDBFF010EF36E1C0EF3CFDBFF1D0EC6
:100D3000DB501CE01C0EDBCFE6FF1F0EDB50E55244
:100D4000E71402E0010E01D0000EE8B08188E8A0AF
:100D50008198818C819C1D0EDB061C0EDBCFF3FF7E
:100D6000F39EF3461C0EF3CFDBFFE1D71806C7D77F
:100D700030D11A0EDBCFE6FF200EE552D880E754C3
:100D8000186E185050E00E0EDBCFE9FFDB2A0F0E75
:100D9000DBCFEAFF01E3DB2A1F0EEFCFDBFF200EE4
:100DA000DB6A080EF36E1D0EF3CFDBFF010EF36E50
:100DB0001C0EF3CFDBFF1D0EDB5027E082AE09D007
:100DC000200EDBCFE7FF1C0EDB50E712200EE7CF33
:100DD000DBFF1C0EDBCFE6FF1F0EDB50E552E714F6
:100DE00002E0010E01D0000EE8B08188E8A08198F1
:100DF000818C819C1D0EDB061C0EDBCFF3FFF39E66
:100E0000F3461C0EF3CFDBFFD6D70C0EDBCFE9FF8A
:100E1000DB2A0D0EDBCFEAFF01E3DB2A200EDBCF5E
:100E2000EFFF1806AED7D5D01A0EDBCFE6FF200EA7
:100E3000E552D880E754186E185053E00E0EDBCF01
:100E4000E9FFDB2A0F0EDBCFEAFF01E3DB2A1E0EF0
:100E5000EFCFDBFF0E0EDBCFE9FFDB2A0F0EDBCF80
:100E6000EAFF01E3DB2A1F0EEFCFDBFF080EF36E74
:100E70001D0EF3CFDBFF010EF36E1C0EF3CFDBFF75
:100E80001D0EDB502BE01C0EDBCFE6FF1E0EDB50F1
:100E9000E552E71402E0010E01D0000EE8B0818AAD
:100EA000E8A0819A1C0EDBCFE6FF1F0EDB50E55257
:100EB000E71402E0010E01D0000EE8B08188E8A03E
:100EC0008198818C819C1D0EDB061C0EDBCFF3FF0D
:100ED000F39EF3461C0EF3CFDBFFD2D7020E185E53
:100EE000ABD777D01A0EDBCFE6FF200EE552D880C5
:100EF000E754186E18506CE00E0EDBCFE9FFDB2ACA
:100F00000F0EDBCFEAFF01E3DB2A1E0EEFCFDBFF84
:100F10000E0EDBCFE9FFDB2A0F0EDBCFEAFF01E38A
:100F2000DB2A1F0EEFCFDBFF200EDB6A080EF36E0D
:100F30001D0EF3CFDBFF010EF36E1C0EF3CFDBFFB4
:100F40001D0EDB5036E082AE09D0200EDBCFE7FF6E
:100F50001C0EDB50E712200EE7CFDBFF1C0EDBCFB1
:100F6000E6FF1E0EDB50E552E71402E0010E01D051
:100F7000000EE8B0818AE8A0819A1C0EDBCFE6FF64
:100F80001F0EDB50E552E71402E0010E01D0000E07
:100F9000E8B08188E8A08198818C819C1D0EDB06D9
:100FA0001C0EDBCFF3FFF39EF3461C0EF3CFDBFFEB
:100FB000C7D70C0EDBCFE9FFDB2A0D0EDBCFEAFF34
:100FC00001E3DB2A200EDBCFEFFF020E185E92D783
:100FD00000D01B0EDBA037D002010CBFFDD7D950CB
:100FE000050F1D6EDACF1EF0090EDB50020D1D50ED
:100FF000F324E96E1E50F420EA6EEECF0EF2EDCF30
:101000000FF21B0EDBA20CD01A0EDBCFE6FF200E78
:10101000E552D880E754FE0BE84202010D6F09D07B
:101020001A0EDBCFE6FF200EE552D880E75402010E
:101030000D6F51EC0EF0400E02010C1702010C7DF9
:10104000880E02010C131B0EDBA644D0020108BF60
:10105000FDD7150EDBCF1DF0160EDBCF1EF0170EE1
:10106000DBCF1FF0180EDBCF20F0200E1D5E000E30
:101070001E5A000E1F5A000E205A2034000E20184F
:1010800009E6D880200E1D54000E1E54000E1F5479
:10109000000E20541FE2D950010F1D6EDACF1EF052
:1010A000090EDB50020D1D50F324E96E1E50F42092
:1010B000EA6EEECF0AF2EDCF0BF20201200E096FBD
:1010C000400E020108170201087D880E0201081374
:1010D00051EC0EF0090EDB70D950010F1D6EDACF06
:1010E0001EF0090EDB50020D1D50F324E96E1E5058
:1010F000F420EA6E0E0EEECFDBFF0F0EEDCFDBFF1E
:10110000D950050F1D6EDACF1EF0090EDB50020D0F
:101110001D50F324E96E1E50F420EA6E0C0EEECF43
:10112000DBFF0D0EEDCFDBFF1A0EDB6AD950150F7A
:10113000E96EDACFEAFF200EEE5E000EEE5A000EE8
:10114000EE5A000EEE5ACED41A0EDBCF1DF01E6AF8
:101150001F6A206AD950150FE96EDACFEAFF1D50D9
:10116000EE5E1E50EE5A1F50EE5A2050EE5A1B0EE5
:10117000DB500B0B0B0A01E136D1010A01E1D9D09A
:10118000030A01E17FD0010A3FE0090A01E02BD107
:10119000150EDB50186E1850010835E2200EDB6A80
:1011A000080EF36E1D0EF3CFDBFF010EF36E1C0E67
:1011B000F3CFDBFF1D0EDB5018E082AE09D0200E0E
:1011C000DBCFE7FF1C0EDB50E712200EE7CFDBFF83
:1011D000818C819C1D0EDB061C0EDBCFF3FFF39E82
:1011E000F3461C0EF3CFDBFFE5D70C0EDBCFE9FF98
:1011F000DB2A0D0EDBCFEAFF01E3DB2A200EDBCF7B
:10120000EFFF1806C8D762D1150EDB50186E1850C4
:10121000010837E20E0EDBCFE9FFDB2A0F0EDBCF32
:10122000EAFF01E3DB2A1F0EEFCFDBFF080EF36EB0
:101230001D0EF3CFDBFF010EF36E1C0EF3CFDBFFB1
:101240001D0EDB501CE01C0EDBCFE6FF1F0EDB503B
:10125000E552E71402E0010E01D0000EE8B08188EB
:10126000E8A08198818C819C1D0EDB061C0EDBCFD3
:10127000F3FFF39EF3461C0EF3CFDBFFE1D7180616
:10128000C6D724D1150EDB50186E1850010850E255
:101290000E0EDBCFE9FFDB2A0F0EDBCFEAFF01E307
:1012A000DB2A1F0EEFCFDBFF200EDB6A080EF36E8A
:1012B0001D0EF3CFDBFF010EF36E1C0EF3CFDBFF31
:1012C0001D0EDB5027E082AE09D0200EDBCFE7FFFA
:1012D0001C0EDB50E712200EE7CFDBFF1C0EDBCF2E
:1012E000E6FF1F0EDB50E552E71402E0010E01D0CD
:1012F000000EE8B08188E8A08198818C819C1D0E49
:10130000DB061C0EDBCFF3FFF39EF3461C0EF3CF80
:10131000DBFFD6D70C0EDBCFE9FFDB2A0D0EDBCFD0
:10132000EAFF01E3DB2A200EDBCFEFFF1806ADD783
:10133000CDD0150EDB50186E1850020853E20E0E79
:10134000DBCFE9FFDB2A0F0EDBCFEAFF01E3DB2A6D
:101350001E0EEFCFDBFF0E0EDBCFE9FFDB2A0F0EF9
:10136000DBCFEAFF01E3DB2A1F0EEFCFDBFF080E26
:10137000F36E1D0EF3CFDBFF010EF36E1C0EF3CFE9
:10138000DBFF1D0EDB502BE01C0EDBCFE6FF1E0E3D
:10139000DB50E552E71402E0010E01D0000EE8B088
:1013A000818AE8A0819A1C0EDBCFE6FF1F0EDB507E
:1013B000E552E71402E0010E01D0000EE8B081888A
:1013C000E8A08198818C819C1D0EDB061C0EDBCF72
:1013D000F3FFF39EF3461C0EF3CFDBFFD2D7020ED2
:1013E000185EAAD773D0150EDB50186E185002087D
:1013F0006CE20E0EDBCFE9FFDB2A0F0EDBCFEAFF3C
:1014000001E3DB2A1E0EEFCFDBFF0E0EDBCFE9FF81
:10141000DB2A0F0EDBCFEAFF01E3DB2A1F0EEFCF43
:10142000DBFF200EDB6A080EF36E1D0EF3CFDBFF31
:10143000010EF36E1C0EF3CFDBFF1D0EDB5036E00A
:1014400082AE09D0200EDBCFE7FF1C0EDB50E71287
:10145000200EE7CFDBFF1C0EDBCFE6FF1E0EDB50BE
:10146000E552E71402E0010E01D0000EE8B0818AD7
:10147000E8A0819A1C0EDBCFE6FF1F0EDB50E55281
:10148000E71402E0010E01D0000EE8B08188E8A068
:101490008198818C819C1D0EDB061C0EDBCFF3FF37
:1014A000F39EF3461C0EF3CFDBFFC7D70C0EDBCF4A
:1014B000E9FFDB2A0D0EDBCFEAFF01E3DB2A200E7A
:1014C000DBCFEFFF020E185E91D700D0070E1D6E26
:1014D0001E6A1F6A206AD950100FE96EDACFEAFF40
:1014E000EE501D16EE501E16EE501F16EE50201632
:1014F0001D0E1DC0DBFF1D0EDB5005E1080EF36E57
:101500001D0EF3CFDBFF1B0EDBA20CD00E0EDBCFCC
:10151000E9FFDB2A0F0EDBCFEAFF01E3DB2A1E0E19
:10152000EFCFDBFF1B0EDBA60AD00E0EDBCFE9FFF1
:101530000F0EDBCFEAFF1F0EEFCFDBFF0BD01B0E32
:10154000DB50100B02E0FF0E01D0000EE76E1F0E05
:10155000E7CFDBFF200EDB6A010EF36E1C0EF3CF2C
:10156000DBFF1D0EDB5039E082AE09D0200EDBCF51
:10157000E7FF1C0EDB50E712200EE7CFDBFF1B0E50
:10158000DBA20FD01C0EDBCFE6FF1E0EDB50E552B8
:10159000E71402E0010E01D0000EE8B0818AE8A055
:1015A000819A1C0EDBCFE6FF1F0EDB50E552E714DD
:1015B00002E0010E01D0000EE8B08188E8A0819819
:1015C000818C819C1D0EDB061C0EDBCFF3FFF39E8E
:1015D000F3461C0EF3CFDBFFC4D71B0EDBA044D0B9
:1015E0000C0EDBCFE9FF0D0EDBCFEAFF200EDBCFC9
:1015F000EFFF02010CBFFDD7D950050F1D6EDACFEA
:101600001EF0090EDB50020D1D50F324E96E1E5032
:10161000F420EA6EEECF0EF2EDCF0FF21B0EDBA23E
:1016200016D0150EDBCF06F0160EDBCF07F0170E27
:10163000DBCF08F0180EDBCF09F0020E0B6E0C6A40
:101640000D6A0E6AF1EC11F006C00DF203D0150E12
:10165000DBCF0DF251EC0EF0400E02010C1702012F
:101660000C7D880E02010C131B0EDB50800B14E066
:101670001B0EDB50080B10E00201200E0A6F020E59
:101680000B6F0201200E096F400E020108170201C4
:10169000087D880E02010813F50E0201A25D03E227
:1016A0000201A26B03D0F50E0201A25F66D0020117
:1016B000A835000EA81909E6D880550EA555150EB7
:1016C000A655000EA755000EA85531E2A5C21DF083
:1016D000A6C21EF0A7C21FF0A8C220F0550E0B6EC6
:1016E000150E0C6E0D6A0E6A1DC006F01EC007F0C6
:1016F0001FC008F020C009F0F1EC11F006C01DF089
:1017000007C01EF008C01FF009C020F01D2A000EFF
:101710001E22000E1F22000E20221DC0A0F21EC09D
:10172000A1F20201A051A11101E0FBD715D0A5C281
:1017300014F0A6C215F0A7C216F0A8C217F01450F4
:1017400015101610171008E0817C817C1406000E1D
:10175000155A165A175AF3D7050EDF6E0ED002012E
:101760000201A551010B02E0828801D08298DF6A54
:1017700004D0FF0002D0DF6A00D0DF500EE002018B
:101780000CBFFDD7DFCFE6FFA40EE66E020EE66EBD
:1017900072EC11F0E552E552E552210EE15C02E2F5
:1017A000E16AE552E16EE552E7CFD9FF1200D9CFE9
:1017B000E6FFE1CFD9FF040EE126FC0EDB50010A63
:1017C00076E0010A01E093D00C0E086E096AFD0E66
:1017D000DBCF0DF0FE0EDBCF0EF025EC12F0020E8B
:1017E00006C0DBFF030E07C0DBFF020EDBCF1DF0E0
:1017F000030EDBCF1EF00A0E1D5C000E1E5801E228
:1018000055D0020EDBCF1DF0030EDBCF1EF0F60E1F
:101810001D5C000E1E5815E20A0E1D6E1E6A020E99
:10182000DBCF08F0030EDBCF09F01DC00DF01EC0AA
:101830000EF0C4EC12F00850E66E06EC13F0E55220
:1018400035D0020EDBCF1DF0030EDBCF1EF09C0E59
:101850001D5C000E1E5815E2640E1D6E1E6A020EFF
:10186000DBCF08F0030EDBCF09F01DC00DF01EC06A
:101870000EF0C4EC12F00850E66EF8EC12F0E552EF
:1018800015D0E80E1D6E030E1E6E020EDBCF08F0A3
:10189000030EDBCF09F01DC00DF01EC00EF0C4EC2E
:1018A00012F00850E66EDAEC12F0E55220D0DE6A53
:1018B000DD6ADECF1DF0DDCF1EF0FD0EDBCF1FF0A9
:1018C000FE0EDBCF20F01F501D5C20501E580EE294
:1018D000E66AE80EE66E030EE66E69DFE552E55253
:1018E000E552DF2A010E01E3DB2AE3D700D0040E24
:1018F000E15C02E2E16AE552E16EE552E7CFD9FF31
:101900001200D8CFE4FFE0CFE4FFE46EDACFE4FFCB
:10191000E2CFDAFFE6529E920201A007000EA15B21
:10192000A35102E10A0EA36FA307050E0201D75DC2
:1019300002E28B9A0AD00201A35107E1A2510008EA
:1019400003E28B7AA20701D08B8AE552E5CFDAFF5A
:0C195000E550E5CFE0FFE5CFD8FF100028
:04195C000201105123
:10196000600BE842E842E842E842E842000901E050
:1019700055D01151070A51E00B0A4FE0070A40E029
:10198000010A2CE00B0A28E0020A26E0030A22E002
:10199000080A12E0010A0EE00F0A0AE0030A01E059
:1019A0003CD00201010ED06F0201040ED76F36D079
:1019B00036D834D090D832D00201010ED06F020157
:1019C000D90ED16F020ED26F0201D8930201010E1F
:1019D000D56F24D0A8D822D0F4D820D00201010E8F
:1019E000D06F020114510201D16FD26BDA0ED127F0
:1019F000020ED2230201D8930201010ED56F0ED040
:101A00000201010ED06F02011451EA6ADA0FE96E89
:101A1000020EEA2212C2EFFF01D000D01200800EA7
:101A20000201105D57E11351030A34E0010A10E08E
:101A3000030A01E04DD00201010ED06F0201E00E59
:101A4000D16F1D0ED26F120E0201D56FD66B40D032
:101A50000201010ED06F02011251F66EF76AD890A2
:101A6000F636F736A40EF6261E0EF7220900F5CF3D
:101A7000D1F20A00F5CFD2F2020E0201F76AD125A7
:101A8000F66ED251F7220900F5CFD5F20A00F5CF54
:101A9000D6F21ED00201010ED06F02011251F66E75
:101AA000F76AD890F636F736A80EF6261E0EF722FD
:101AB0000900F5CFD1F20A00F5CFD2F2D1C2F6FF7C
:101AC000D2C2F7FF0800F5500201D56FD66B00D0E7
:101AD0000201D88312000201010ED06F0F0EE66ED4
:101AE000540EE66E0F0EE66EDBEC0EF0E552E5529C
:101AF000E552010EE66EDA0EE66E020EE66EDBECE5
:101B00000EF0E552E552E55212C2D9F2020112512D
:101B100004E10201050ED76F05D00201060ED76F52
:101B20005CEC11F012000201186B196B02011051EC
:101B30001F0B020A14E0030A0EE0010A01E033D091
:101B40000201010ED06F020118810201D8A102D05A
:101B50000201188328D00201010ED06F24D00201A7
:101B6000010ED06F020114510F0B080DF3501E6AC5
:101B7000000F1D6E020E1E221451800B01E0010E9B
:101B8000040DF35002011D24D36F000E1E20D46FEC
:101B9000D3C2E9FFD4C2EAFFEF50040B03E0020115
:101BA000010E186F00D00201D0050AE10201180EE3
:101BB000D16F020ED26F0201D8930201020ED56FCF
:101BC00012000201120510E110511F0B00090CE177
:101BD0000201010ED06F030E0201115D03E102014B
:101BE000D88102D00201D891020112513AE110517C
:101BF0001F0B020836E114510F0B000932E00201FD
:101C0000010ED06F020114510F0B080DF3501E6A24
:101C1000000F1D6E020E1E221451800B01E0010EFA
:101C2000040DF35002011D24D36F000E1E20D46F4B
:101C3000030E0201115D07E1840ED3C2E9FFD4C295
:101C4000EAFFEF6E0ED014AF06D0D3C2E9FFD4C2C4
:101C5000EAFFEF6A06D0880ED3C2E9FFD4C2EAFFDA
:041C6000EF6E120011
:0C1C640064A60FD802D064B613D80201A9
:101C7000D70508E164BA06D0626A606A608060884D
:101C8000020ED76F1200646A606A64860201010E58
:101C9000D76F1200646A606A0201D76B12004AEFC4
:101CA0000EF00201D75101E13AD06250040B04E07A
:101CB0006050040B01E038D864B231D06250010B9F
:101CC00004E06050010B01E052D86250100B04E0B8
:101CD0006050100B01E024D86250400B04E06050CB
:101CE000400B01E037D86250200B04E06050200B1D
:101CF00001E032D86250020B04E06050020B01E0B8
:101D000034D8030E0201D75D01E209D06250080BFE
:101D100006E06050080B03E000EC10F06296120041
:101D200060846298648212006492609462941200EB
:101D30000201D8A10ED0F8DF64840201080EDE6F24
:101D4000070EDF6FDE07000EDF5BDE51DF11FAE109
:101D500064941200629C12000F0153A104D04EEC57
:101D600011F00F015391629A1200629212000F015A
:101D70005F6B626A9F0E5B6F7B0E606E5C6B0F0E1B
:101D8000E66E540EE66E0F0EE66E15D8E552E5527D
:101D9000E5520F01160E536F62A602D06296FCD771
:101DA00064984EEC11F00201D8910201D96B020146
:101DB000030ED76F1200D9CFE6FFE1CFD9FFFD0E9A
:101DC000DBCFE9FFFE0EDBCFEAFFFC0EDB5004E0C9
:101DD000EE6AFC0EDB06F9D7E552E7CFD9FF120019
:101DE0001201000200000008D8048CFF0501010266
:101DF000000109022E0001010080320904000004E4
:101E000000000000070501022000200705810220D4
:101E10000020070502022000200705820220002082
:101E2000040309044A035800200045006E006700BF
:101E300069006E0065006500720069006E00670051
:101E4000200053006F00660074007700610072008C
:101E500065002000530079007300740065006D0078
:101E60007300200043006F00720070002E003603E4
:101E70005800530055005300420020002D00200060
:101E80005800450053005300200055005300420005
:101E9000200049006E007400650072006600610059
:0E1EA00063006500F21DF21D201E241E6E1E42
:021EAE00056AC3
:101EB000046A036A026A200EE76ED8900636073677
:101EC0000836093602360336043605360B50025CF6
:101ED0000C5003580D5004580E50055809E30B5090
:101EE000025E0C50035A0D50045A0E50055A062A31
:061EF000E72EE4D712000A
:081EF6005630312E30350A0090
:021EFE001200D0
:101F0000008040C020A060E0109050D030B070F051
:101F1000088848C828A868E8189858D838B878F8C1
:101F2000048444C424A464E4149454D434B474F4F1
:101F30000C8C4CCC2CAC6CEC1C9C5CDC3CBC7CFC61
:101F4000028242C222A262E2129252D232B272F2F1
:101F50000A8A4ACA2AAA6AEA1A9A5ADA3ABA7AFA61
:101F6000068646C626A666E6169656D636B676F691
:101F70000E8E4ECE2EAE6EEE1E9E5EDE3EBE7EFE01
:101F8000018141C121A161E1119151D131B171F1C1
:101F9000098949C929A969E9199959D939B979F931
:101FA000058545C525A565E5159555D535B575F561
:101FB0000D8D4DCD2DAD6DED1D9D5DDD3DBD7DFDD1
:101FC000038343C323A363E3139353D333B373F361
:101FD0000B8B4BCB2BAB6BEB1B9B5BDB3BBB7BFBD1
:101FE000078747C727A767E7179757D737B777F701
:101FF0000F8F4FCF2FAF6FEF1F9F5FDF3FBF7FFF71
:10200000635002E0000E01D0010E00090BE0020156
:1020100000513C0BE842E8420D0802E10CD801D027
:102020001CD808D0635002E0000E01D0010E040954
:1020300001E023D81200D9CFE6FFE1CFD9FFE65265
:102040000201CF6BD06BD56BD66BAEEC0CF0E0D849
:10205000E552E552E7CFD9FF1200020E0201CF5D33
:102060000AE199D8020100BD03D0C80E006F02D06A
:10207000880E006F01D012D91200040E0201D75D44
:102080000DE112C25CFF0F015C51000804E2020185
:10209000050ED76F03D00201030ED76F0201CF05E3
:1020A0000AE10BD8020104BD03D0C80E046F02D0B0
:1020B000880E046F01D0F2D81200D9CFE6FFE1CF2D
:1020C000D9FF020EE1260201080ED55D000ED65999
:1020D00005E2D5C2DEFFD6C2DDFF03D0080EDE6EFC
:1020E000DD6A020104930491010EDB500413DFCF7B
:1020F00005F2000EDB500201D55F010EDB50D65B0E
:10210000180ED36F020ED46F0201D8A31ED0D9CF00
:10211000E9FFDACFEAFFEE50ED1016E0D1C2F6FF8C
:10212000D2C2F7FF0800F550D3C2E9FFD4C2EAFFDC
:10213000EF6E0201D32B000ED423D12BD223DF0666
:10214000010E01E2DB06E3D71CD0D9CFE9FFDACFDD
:10215000EAFFEE50ED1015E0D1C2E9FFD2C2EAFF6E
:10216000EF50D3C2E9FFD4C2EAFFEF6E0201D32BD6
:10217000000ED423D12BD223DF06010E01E2DB06B1
:10218000E4D7020EE15C02E2E16AE552E16EE5525B
:10219000E7CFD9FF1200D9CFE6FFE1CFD9FF020E7A
:1021A000E126030E02010015E76E010EE7CFDBFF0B
:1021B00001C2DFFFDE500201D527DD50D623180E05
:1021C000D16F020ED26FD9CFE9FFDACFEAFFEE501E
:1021D000ED1014E0D1C2E9FFD2C2EAFFEF50D3C242
:1021E000E9FFD4C2EAFFEF6ED32B000ED423D12B2C
:1021F000D223DF06010E01E2DB06E5D7020EE15C29
:1022000002E2E16AE552E16EE552E7CFD9FF120042
:102210000201D0510CE10201080E016F100E026F95
:10222000020E036F840E006F0201046F35D00201AD
:1022300010AF22D00201D5510201165D0201D65124
:102240000201175904E216C2D5F217C2D6F235DFE1
:102250000201010ECF6F0201080E016F100E026F16
:10226000020E036F800E006F0201180E066F020E41
:10227000076FC80E046F10D00201020ECF6F02016B
:10228000056BC80E046F0201080E016F180E026F75
:10229000020E036FC80E006F649812000201CF6B2C
:1022A0000201080E016F100E026F020E036F880EFE
:0822B000006F0201046B120033
:0822B8000201E06B0F011E0E94
:1022C000546F0201200E096F200E0A6F020E0B6F71
:1022D000880E086F0201600E0E6F020E0F6F400E27
:1022E0000C6F1200D9CFE6FFE1CFD9FFE652FC0E0A
:1022F000DB50200805E2200EF36EFC0EF3CFDBFF6F
:10230000DF6AFC0EDB50DF5C19E2DF50E76EFD0E8A
:10231000DBCFE9FFFE0EDBCFEAFFE750E926000E38
:10232000EA22EF50E66EDF50EA6A600FE96E020EB5
:10233000EA22E552E750EF6EDF2AE3D70201600E92
:102340000E6F020E0F6FFC0EDBCF0DF2400E0C175E
:102350000C7D880E0C13E552E552E7CFD9FF120031
:10236000D9CFE6FFE1CFD9FF0201E06B020108BF40
:1023700031D0FC0EDBCF1DF00951D8801D5403E293
:10238000FC0E09C2DBFF0201E06BFC0EDB50E05DDE
:1023900019E2E051EA6A200FE96E020EEA22EF50DC
:1023A000E66EE051E76EFD0EDBCFE9FFFE0EDBCF00
:1023B000EAFFE750E926000EEA22E552E750EF6E09
:1023C000E02BE3D70201200E096F400E0817087DAD
:1023D000880E08130201E05100D0E552E7CFD9FF83
:0223E0001200E9
:0E23E200006AE86A0EAEFEEF11F00B6C0C1EE6
:1023F0000D1E0E1E0C220D220E22001E09AE09EF2C
:1024000012F0066C071E081E091E07220822092268
:10241000001E57EC0FF009BE20EF12F000AE000CCA
:10242000066C071E081E091EE86A072208220922F8
:10243000026C031E041E051E032204220522000C4A
:1024400000BE10EF12F00188FF0C08C012F0085017
:102450000D02F4CF07F0F3CF06F009500E02F4CFCF
:1024600009F0F3CF08F00D02F3500726F4500822CC
:10247000E86A092212500E02F3500726F45008228F
:06248000E86A0922000CCD
:0A2486002A0EF66E080EF76E000E27
:10249000F86E02010900F550CA6F0900F550CB6FC4
:1024A00003E1CA6701D03DD00900F550C56F0900AE
:1024B000F550C66F0900F550C76F09000900F550C7
:1024C000E96E0900F550EA6E090009000900F550AF
:1024D000C86F0900F550C96F09000900F6CFCCF2AA
:1024E000F7CFCDF2F8CFCEF2C5C2F6FFC6C2F7FFE6
:1024F000C7C2F8FF0201C85302E1C95307E009004F
:10250000F550EE6EC807F8E2C907F9D7CCC2F6FF5E
:10251000CDC2F7FFCEC2F8FF0201CA07000ECB5BA7
:04252000BFD712000F
:0C252400FB0EE3CFF6FFFC0EE3CFF7FF49
:10253000FD0EE3CFF8FFFE0EE3CFE9FFFF0EE3CF82
:10254000EAFFE9CFF3FFEACFF4FF0900F5CFEFFF91
:06255000EE66FBD712004D
:0A25560005D810D83AEC04F0FCD7C9
:1025600012000F0EC112140E616E0201D76B020130
:10257000D86B0201D96B1CEF04F032EC0EF061BE97
:0825800002D051EC0EF0120034
:08258800056A046A100EE76EFB
:10259000D89008360936043605360D50045C0E50C6
:1025A000055805E30D50045E0E50055A082AE72E23
:0425B000F0D712004E
:0C25B400FF0EE350216E480E01D04C0ECB
:1025C000E76EE72EFED7E76AE72EFED7212EF7D774
:0425D00000001200F5
:0C25D40011EE00F021EE00F0F86A019C0E
:1025E00043EC12F07FEC0FF0ABEC12F0FBD71200D3
:1025F000FF0EE350216E1B0E00D001D0200EE76EBF
:0C260000E72EFED7212EFAD700D01200E2
:04260C00FF0EE3508A
:10261000E84E1200000000D000D000D0E82EFAD71B
:022620001200A6
:0E26220000EE00F00F0EEE6AEA62FDD7120025
:03263000F61E0192
:020000040030CA
:0100000000FF
:0100010032CC
:0100020002FB
:010003001EDE
:01000500807A
:0100060009F0
:0100080003F4
:01000900C036
:01000A0003F2
:01000B00A054
:01000C0003F0
:01000D0040B2
:00000001FF
